{
  "transactions": [
    {
      "hash": "0x1e73f9cb08df6b8e02103a370ddf294329a96a47621c4552b04b6aa5151ac27f",
      "transactionType": "CALL",
      "contractName": null,
      "contractAddress": "0xab0fa85b306bed11297348660ffed7f1e48a82cb",
      "function": "approve(address,uint256)",
      "arguments": [
        "0x000000000022D473030F116dDEE9F6B43aC78BA3",
        "115792089237316195423570985008687907853269984665640564039457584007913129639935"
      ],
      "transaction": {
        "from": "0xa623046b3cb9619bace903a8c6d7a1c0a6723c53",
        "to": "0xab0fa85b306bed11297348660ffed7f1e48a82cb",
        "gas": "0x10da9",
        "value": "0x0",
        "input": "0x095ea7b3000000000000000000000000000000000022d473030f116ddee9f6b43ac78ba3ffffffffffffffffffffffffffffffffffffffffffffffffffffffffffffffff",
        "nonce": "0x4f",
        "chainId": "0xaa36a7"
      },
      "additionalContracts": [],
      "isFixedGasLimit": false
    },
    {
      "hash": "0x384709a0fbb08b78d7dc1dc9451e11094a19c5d61daae9ad2bab7714053a7157",
      "transactionType": "CALL",
      "contractName": null,
      "contractAddress": "0x000000000022d473030f116ddee9f6b43ac78ba3",
      "function": "approve(address,address,uint160,uint48)",
      "arguments": [
        "0xAB0fa85b306BED11297348660FFED7f1E48a82Cb",
        "0x429ba70129df741B2Ca2a85BC3A2a3328e5c09b4",
        "1461501637330902918203684832716283019655932542975",
        "281474976710655"
      ],
      "transaction": {
        "from": "0xa623046b3cb9619bace903a8c6d7a1c0a6723c53",
        "to": "0x000000000022d473030f116ddee9f6b43ac78ba3",
        "gas": "0x1112d",
        "value": "0x0",
        "input": "0x87517c45000000000000000000000000ab0fa85b306bed11297348660ffed7f1e48a82cb000000000000000000000000429ba70129df741b2ca2a85bc3a2a3328e5c09b4000000000000000000000000ffffffffffffffffffffffffffffffffffffffff0000000000000000000000000000000000000000000000000000ffffffffffff",
        "nonce": "0x50",
        "chainId": "0xaa36a7"
      },
      "additionalContracts": [],
      "isFixedGasLimit": false
    },
    {
      "hash": "0x62453f6cdc4d1b4d7424b96565446d9a9ac785bf95b4212f9be9045d75c33f9b",
      "transactionType": "CALL",
      "contractName": null,
      "contractAddress": "0xbc25817b3aaff773e5f4bea9a73aa0bdd65b5d95",
      "function": "approve(address,uint256)",
      "arguments": [
        "0x000000000022D473030F116dDEE9F6B43aC78BA3",
        "115792089237316195423570985008687907853269984665640564039457584007913129639935"
      ],
      "transaction": {
        "from": "0xa623046b3cb9619bace903a8c6d7a1c0a6723c53",
        "to": "0xbc25817b3aaff773e5f4bea9a73aa0bdd65b5d95",
        "gas": "0x10da9",
        "value": "0x0",
        "input": "0x095ea7b3000000000000000000000000000000000022d473030f116ddee9f6b43ac78ba3ffffffffffffffffffffffffffffffffffffffffffffffffffffffffffffffff",
        "nonce": "0x51",
        "chainId": "0xaa36a7"
      },
      "additionalContracts": [],
      "isFixedGasLimit": false
    },
    {
      "hash": "0x0754814539d72d00408408fff4884468fa93c0135bab96ef09f8190d7ace66b1",
      "transactionType": "CALL",
      "contractName": null,
      "contractAddress": "0x000000000022d473030f116ddee9f6b43ac78ba3",
      "function": "approve(address,address,uint160,uint48)",
      "arguments": [
        "0xBC25817B3aAFF773e5F4BEA9A73AA0bDd65B5D95",
        "0x429ba70129df741B2Ca2a85BC3A2a3328e5c09b4",
        "1461501637330902918203684832716283019655932542975",
        "281474976710655"
      ],
      "transaction": {
        "from": "0xa623046b3cb9619bace903a8c6d7a1c0a6723c53",
        "to": "0x000000000022d473030f116ddee9f6b43ac78ba3",
        "gas": "0x1112d",
        "value": "0x0",
        "input": "0x87517c45000000000000000000000000bc25817b3aaff773e5f4bea9a73aa0bdd65b5d95000000000000000000000000429ba70129df741b2ca2a85bc3a2a3328e5c09b4000000000000000000000000ffffffffffffffffffffffffffffffffffffffff0000000000000000000000000000000000000000000000000000ffffffffffff",
        "nonce": "0x52",
        "chainId": "0xaa36a7"
      },
      "additionalContracts": [],
      "isFixedGasLimit": false
    },
    {
      "hash": "0x646a7f61f7b8b30e85de1cba59da7380883d191678149755286495275b879544",
      "transactionType": "CALL",
      "contractName": null,
      "contractAddress": "0x429ba70129df741b2ca2a85bc3a2a3328e5c09b4",
      "function": "multicall(bytes[])",
      "arguments": [
        "[0xf7020405000000000000000000000000ab0fa85b306bed11297348660ffed7f1e48a82cb000000000000000000000000bc25817b3aaff773e5f4bea9a73aa0bdd65b5d950000000000000000000000000000000000000000000000000000000000800000000000000000000000000000000000000000000000000000000000000000000a0000000000000000000000000515e5b569611db2ec5c6e0cd6cfc79bf9aca080000000000000000000000000000000000000000004480d7fd0622abfc789b3d400000000000000000000000000000000000000000000000000000000000000e00000000000000000000000000000000000000000000000000000000000000000, 0xdd46508f000000000000000000000000000000000000000000000000000000000000004000000000000000000000000000000000000000000000000000000000687b106c0000000000000000000000000000000000000000000000000000000000000400000000000000000000000000000000000000000000000000000000000000004000000000000000000000000000000000000000000000000000000000000000800000000000000000000000000000000000000000000000000000000000000004020d14140000000000000000000000000000000000000000000000000000000000000000000000000000000000000000000000000000000000000000000000040000000000000000000000000000000000000000000000000000000000000080000000000000000000000000000000000000000000000000000000000000024000000000000000000000000000000000000000000000000000000000000002a0000000000000000000000000000000000000000000000000000000000000030000000000000000000000000000000000000000000000000000000000000001a0000000000000000000000000ab0fa85b306bed11297348660ffed7f1e48a82cb000000000000000000000000bc25817b3aaff773e5f4bea9a73aa0bdd65b5d950000000000000000000000000000000000000000000000000000000000800000000000000000000000000000000000000000000000000000000000000000000a0000000000000000000000000515e5b569611db2ec5c6e0cd6cfc79bf9aca080fffffffffffffffffffffffffffffffffffffffffffffffffffffffffffea318fffffffffffffffffffffffffffffffffffffffffffffffffffffffffffeddb000000000000000000000000000000000000000000000001cfcfe7fa8f01852ef00000000000000000000000000000000000000000000021e19e0c9bab240000100000000000000000000000000000000000000000000032d26d12e980b600001000000000000000000000000a623046b3cb9619bace903a8c6d7a1c0a6723c53000000000000000000000000000000000000000000000000000000000000018000000000000000000000000000000000000000000000000000000000000000000000000000000000000000000000000000000000000000000000000000000040000000000000000000000000ab0fa85b306bed11297348660ffed7f1e48a82cb000000000000000000000000bc25817b3aaff773e5f4bea9a73aa0bdd65b5d950000000000000000000000000000000000000000000000000000000000000040000000000000000000000000ab0fa85b306bed11297348660ffed7f1e48a82cb000000000000000000000000a623046b3cb9619bace903a8c6d7a1c0a6723c530000000000000000000000000000000000000000000000000000000000000040000000000000000000000000bc25817b3aaff773e5f4bea9a73aa0bdd65b5d95000000000000000000000000a623046b3cb9619bace903a8c6d7a1c0a6723c53]"
      ],
      "transaction": {
        "from": "0xa623046b3cb9619bace903a8c6d7a1c0a6723c53",
        "to": "0x429ba70129df741b2ca2a85bc3a2a3328e5c09b4",
        "gas": "0xa2fc7",
        "value": "0x0",
        "input": "0xac9650d800000000000000000000000000000000000000000000000000000000000000200000000000000000000000000000000000000000000000000000000000000002000000000000000000000000000000000000000000000000000000000000004000000000000000000000000000000000000000000000000000000000000001800000000000000000000000000000000000000000000000000000000000000104f7020405000000000000000000000000ab0fa85b306bed11297348660ffed7f1e48a82cb000000000000000000000000bc25817b3aaff773e5f4bea9a73aa0bdd65b5d950000000000000000000000000000000000000000000000000000000000800000000000000000000000000000000000000000000000000000000000000000000a0000000000000000000000000515e5b569611db2ec5c6e0cd6cfc79bf9aca080000000000000000000000000000000000000000004480d7fd0622abfc789b3d400000000000000000000000000000000000000000000000000000000000000e00000000000000000000000000000000000000000000000000000000000000000000000000000000000000000000000000000000000000000000000000000000000000000000000000000000000000000000000000000000000000464dd46508f000000000000000000000000000000000000000000000000000000000000004000000000000000000000000000000000000000000000000000000000687b106c0000000000000000000000000000000000000000000000000000000000000400000000000000000000000000000000000000000000000000000000000000004000000000000000000000000000000000000000000000000000000000000000800000000000000000000000000000000000000000000000000000000000000004020d14140000000000000000000000000000000000000000000000000000000000000000000000000000000000000000000000000000000000000000000000040000000000000000000000000000000000000000000000000000000000000080000000000000000000000000000000000000000000000000000000000000024000000000000000000000000000000000000000000000000000000000000002a0000000000000000000000000000000000000000000000000000000000000030000000000000000000000000000000000000000000000000000000000000001a0000000000000000000000000ab0fa85b306bed11297348660ffed7f1e48a82cb000000000000000000000000bc25817b3aaff773e5f4bea9a73aa0bdd65b5d950000000000000000000000000000000000000000000000000000000000800000000000000000000000000000000000000000000000000000000000000000000a0000000000000000000000000515e5b569611db2ec5c6e0cd6cfc79bf9aca080fffffffffffffffffffffffffffffffffffffffffffffffffffffffffffea318fffffffffffffffffffffffffffffffffffffffffffffffffffffffffffeddb000000000000000000000000000000000000000000000001cfcfe7fa8f01852ef00000000000000000000000000000000000000000000021e19e0c9bab240000100000000000000000000000000000000000000000000032d26d12e980b600001000000000000000000000000a623046b3cb9619bace903a8c6d7a1c0a6723c53000000000000000000000000000000000000000000000000000000000000018000000000000000000000000000000000000000000000000000000000000000000000000000000000000000000000000000000000000000000000000000000040000000000000000000000000ab0fa85b306bed11297348660ffed7f1e48a82cb000000000000000000000000bc25817b3aaff773e5f4bea9a73aa0bdd65b5d950000000000000000000000000000000000000000000000000000000000000040000000000000000000000000ab0fa85b306bed11297348660ffed7f1e48a82cb000000000000000000000000a623046b3cb9619bace903a8c6d7a1c0a6723c530000000000000000000000000000000000000000000000000000000000000040000000000000000000000000bc25817b3aaff773e5f4bea9a73aa0bdd65b5d95000000000000000000000000a623046b3cb9619bace903a8c6d7a1c0a6723c5300000000000000000000000000000000000000000000000000000000",
        "nonce": "0x53",
        "chainId": "0xaa36a7"
      },
      "additionalContracts": [],
      "isFixedGasLimit": false
    }
  ],
  "receipts": [
    {
      "status": "0x1",
      "cumulativeGasUsed": "0xec128b",
      "logs": [
        {
          "address": "0xab0fa85b306bed11297348660ffed7f1e48a82cb",
          "topics": [
            "0x8c5be1e5ebec7d5bd14f71427d1e84f3dd0314c0f7b2291e5b200ac8c7c3b925",
            "0x000000000000000000000000a623046b3cb9619bace903a8c6d7a1c0a6723c53",
            "0x000000000000000000000000000000000022d473030f116ddee9f6b43ac78ba3"
          ],
          "data": "0xffffffffffffffffffffffffffffffffffffffffffffffffffffffffffffffff",
          "blockHash": "0x6e6bde8b3fea1ff39ccd5d8ee35c4256f5e061405c974281e4118f092a3434bb",
          "blockNumber": "0x8631e8",
          "transactionHash": "0x1e73f9cb08df6b8e02103a370ddf294329a96a47621c4552b04b6aa5151ac27f",
          "transactionIndex": "0xc6",
          "logIndex": "0x113",
          "removed": false
        }
      ],
      "logsBloom": "0x00000000000000000000000000000000000000000000000000000000000000000000000000000000008000000001000100000000800000000000000000200010000000000000000000004000000000000000000000000800000000000000000000000040000000000000002000000000000000000000000000000000000000000000000000000000000000000000000000000000000000000000000000000000020000000000000000000000000000000000000000000000000000000000000000000000000000000000000000000000000000000000000000000000000000000010000000000000000000000000000000000000000000000000000000000000",
      "type": "0x2",
      "transactionHash": "0x1e73f9cb08df6b8e02103a370ddf294329a96a47621c4552b04b6aa5151ac27f",
      "transactionIndex": "0xc6",
      "blockHash": "0x6e6bde8b3fea1ff39ccd5d8ee35c4256f5e061405c974281e4118f092a3434bb",
      "blockNumber": "0x8631e8",
      "gasUsed": "0xb863",
      "effectiveGasPrice": "0xf424e",
      "from": "0xa623046b3cb9619bace903a8c6d7a1c0a6723c53",
      "to": "0xab0fa85b306bed11297348660ffed7f1e48a82cb",
      "contractAddress": null
    },
    {
      "status": "0x1",
      "cumulativeGasUsed": "0xe71c3b",
      "logs": [
        {
          "address": "0x000000000022d473030f116ddee9f6b43ac78ba3",
          "topics": [
            "0xda9fa7c1b00402c17d0161b249b1ab8bbec047c5a52207b9c112deffd817036b",
            "0x000000000000000000000000a623046b3cb9619bace903a8c6d7a1c0a6723c53",
            "0x000000000000000000000000ab0fa85b306bed11297348660ffed7f1e48a82cb",
            "0x000000000000000000000000429ba70129df741b2ca2a85bc3a2a3328e5c09b4"
          ],
          "data": "0x000000000000000000000000ffffffffffffffffffffffffffffffffffffffff0000000000000000000000000000000000000000000000000000ffffffffffff",
          "blockHash": "0xcbbaaf08b5d413933aefd903d2d0b5f88f3e7ef05ea1765082da33fd0fa0ff71",
          "blockNumber": "0x8631e9",
          "transactionHash": "0x384709a0fbb08b78d7dc1dc9451e11094a19c5d61daae9ad2bab7714053a7157",
          "transactionIndex": "0xbb",
          "logIndex": "0x13c",
          "removed": false
        }
      ],
      "logsBloom": "0x00010000000000000000000000000000000000000000800000000000000000000000000000000040088000000000000000000000000000000000000000080010000000000000000000000000000000000004000002000000000000000000000000000040000000000000000000000000000000000000000000000800000000000020000000000000000000000000000000000000000000000000000000000000000000000000000000000000000000000000000000000000000000080000000000000000000000000000000000000000000000000000000040000000000000000000000000000000000000000000000000000000000000000000000000000400",
      "type": "0x2",
      "transactionHash": "0x384709a0fbb08b78d7dc1dc9451e11094a19c5d61daae9ad2bab7714053a7157",
      "transactionIndex": "0xbb",
      "blockHash": "0xcbbaaf08b5d413933aefd903d2d0b5f88f3e7ef05ea1765082da33fd0fa0ff71",
      "blockNumber": "0x8631e9",
      "gasUsed": "0xbaca",
      "effectiveGasPrice": "0xf424e",
      "from": "0xa623046b3cb9619bace903a8c6d7a1c0a6723c53",
      "to": "0x000000000022d473030f116ddee9f6b43ac78ba3",
      "contractAddress": null
    },
    {
      "status": "0x1",
      "cumulativeGasUsed": "0x1881dbd",
      "logs": [
        {
          "address": "0xbc25817b3aaff773e5f4bea9a73aa0bdd65b5d95",
          "topics": [
            "0x8c5be1e5ebec7d5bd14f71427d1e84f3dd0314c0f7b2291e5b200ac8c7c3b925",
            "0x000000000000000000000000a623046b3cb9619bace903a8c6d7a1c0a6723c53",
            "0x000000000000000000000000000000000022d473030f116ddee9f6b43ac78ba3"
          ],
          "data": "0xffffffffffffffffffffffffffffffffffffffffffffffffffffffffffffffff",
          "blockHash": "0x68fa3a5c9acc7758a01130f6c3baa914fb003e016ab87148b13fd142d83b2bad",
          "blockNumber": "0x8631ed",
          "transactionHash": "0x62453f6cdc4d1b4d7424b96565446d9a9ac785bf95b4212f9be9045d75c33f9b",
          "transactionIndex": "0x133",
          "logIndex": "0x1bb",
          "removed": false
        }
      ],
      "logsBloom": "0x00000040000000000000000020000000000000000000000000000000000000000000000000000000008000000000000000000000800000000000000000200010000000000004000000004000000000000000000000000800000000000000000000000040000000000000000000000000000000000000000000000000000000000000000000000000000000000000000000000000000000000000000000000000020000000000000000000000000000000000000000000000000000000000000000000000000000000000000000000000000000000000000000000000000000000010000000000000000000000000000000000000000000000000000000000000",
      "type": "0x2",
      "transactionHash": "0x62453f6cdc4d1b4d7424b96565446d9a9ac785bf95b4212f9be9045d75c33f9b",
      "transactionIndex": "0x133",
      "blockHash": "0x68fa3a5c9acc7758a01130f6c3baa914fb003e016ab87148b13fd142d83b2bad",
      "blockNumber": "0x8631ed",
      "gasUsed": "0xb863",
      "effectiveGasPrice": "0xf424e",
      "from": "0xa623046b3cb9619bace903a8c6d7a1c0a6723c53",
      "to": "0xbc25817b3aaff773e5f4bea9a73aa0bdd65b5d95",
      "contractAddress": null
    },
    {
      "status": "0x1",
      "cumulativeGasUsed": "0x1096b04",
      "logs": [
        {
          "address": "0x000000000022d473030f116ddee9f6b43ac78ba3",
          "topics": [
            "0xda9fa7c1b00402c17d0161b249b1ab8bbec047c5a52207b9c112deffd817036b",
            "0x000000000000000000000000a623046b3cb9619bace903a8c6d7a1c0a6723c53",
            "0x000000000000000000000000bc25817b3aaff773e5f4bea9a73aa0bdd65b5d95",
            "0x000000000000000000000000429ba70129df741b2ca2a85bc3a2a3328e5c09b4"
          ],
          "data": "0x000000000000000000000000ffffffffffffffffffffffffffffffffffffffff0000000000000000000000000000000000000000000000000000ffffffffffff",
          "blockHash": "0xd929974660dd43eaad5b196e530f7523b11cf66c97fb556ffa8e09d242ca0ce7",
          "blockNumber": "0x8631ee",
          "transactionHash": "0x0754814539d72d00408408fff4884468fa93c0135bab96ef09f8190d7ace66b1",
          "transactionIndex": "0xcb",
          "logIndex": "0x121",
          "removed": false
        }
      ],
      "logsBloom": "0x00010000000000000000000000000000000000000000000000000000000000000000000000000040088000000000000000000000000000000000000000080010000000000000000000000000000000000000000000000000000000000000000000000040000000000000000000000040000000000000000000000800000000000020000000000000000000000000000000000000000000000000000000000000000000000000000000000000000000000000000000000000000000080080000000000000000000000000000000000000000000000000040040000000000000000000000000000000000000000000000000000000000000000000000000000400",
      "type": "0x2",
      "transactionHash": "0x0754814539d72d00408408fff4884468fa93c0135bab96ef09f8190d7ace66b1",
      "transactionIndex": "0xcb",
      "blockHash": "0xd929974660dd43eaad5b196e530f7523b11cf66c97fb556ffa8e09d242ca0ce7",
      "blockNumber": "0x8631ee",
      "gasUsed": "0xbaca",
      "effectiveGasPrice": "0xf424e",
      "from": "0xa623046b3cb9619bace903a8c6d7a1c0a6723c53",
      "to": "0x000000000022d473030f116ddee9f6b43ac78ba3",
      "contractAddress": null
    },
    {
      "status": "0x1",
      "cumulativeGasUsed": "0x137e91d",
      "logs": [
        {
          "address": "0xe03a1074c86cfedd5c142c4f04f1a1536e203543",
          "topics": [
            "0xdd466e674ea557f56295e2d0218a125ea4b4f0f6f3307b95f85e6110838d6438",
            "0xaac1bcbfe8218a0846eefbbd599f23b89a729498e881b31e697ccd7f1f2601fc",
            "0x000000000000000000000000ab0fa85b306bed11297348660ffed7f1e48a82cb",
            "0x000000000000000000000000bc25817b3aaff773e5f4bea9a73aa0bdd65b5d95"
          ],
          "data": "0x0000000000000000000000000000000000000000000000000000000000800000000000000000000000000000000000000000000000000000000000000000000a0000000000000000000000000515e5b569611db2ec5c6e0cd6cfc79bf9aca080000000000000000000000000000000000000000004480d7fd0622abfc789b3d4fffffffffffffffffffffffffffffffffffffffffffffffffffffffffffec062",
          "blockHash": "0x64fb772f1231d0c5c7c36b13dab60490d8234169d1edfa8fe3415b46a90dfa7f",
          "blockNumber": "0x8631f3",
          "transactionHash": "0x646a7f61f7b8b30e85de1cba59da7380883d191678149755286495275b879544",
          "transactionIndex": "0xd1",
          "logIndex": "0x126",
          "removed": false
        },
        {
          "address": "0x429ba70129df741b2ca2a85bc3a2a3328e5c09b4",
          "topics": [
            "0xddf252ad1be2c89b69c2b068fc378daa952ba7f163c4a11628f55a4df523b3ef",
            "0x0000000000000000000000000000000000000000000000000000000000000000",
            "0x000000000000000000000000a623046b3cb9619bace903a8c6d7a1c0a6723c53",
            "0x0000000000000000000000000000000000000000000000000000000000003af8"
          ],
          "data": "0x",
          "blockHash": "0x64fb772f1231d0c5c7c36b13dab60490d8234169d1edfa8fe3415b46a90dfa7f",
          "blockNumber": "0x8631f3",
          "transactionHash": "0x646a7f61f7b8b30e85de1cba59da7380883d191678149755286495275b879544",
          "transactionIndex": "0xd1",
          "logIndex": "0x127",
          "removed": false
        },
        {
          "address": "0xe03a1074c86cfedd5c142c4f04f1a1536e203543",
          "topics": [
            "0xf208f4912782fd25c7f114ca3723a2d5dd6f3bcc3ac8db5af63baa85f711d5ec",
            "0xaac1bcbfe8218a0846eefbbd599f23b89a729498e881b31e697ccd7f1f2601fc",
            "0x000000000000000000000000429ba70129df741b2ca2a85bc3a2a3328e5c09b4"
          ],
          "data": "0xfffffffffffffffffffffffffffffffffffffffffffffffffffffffffffea318fffffffffffffffffffffffffffffffffffffffffffffffffffffffffffeddb000000000000000000000000000000000000000000000001cfcfe7fa8f01852ef0000000000000000000000000000000000000000000000000000000000003af8",
          "blockHash": "0x64fb772f1231d0c5c7c36b13dab60490d8234169d1edfa8fe3415b46a90dfa7f",
          "blockNumber": "0x8631f3",
          "transactionHash": "0x646a7f61f7b8b30e85de1cba59da7380883d191678149755286495275b879544",
          "transactionIndex": "0xd1",
          "logIndex": "0x128",
          "removed": false
        },
        {
          "address": "0xab0fa85b306bed11297348660ffed7f1e48a82cb",
          "topics": [
            "0xddf252ad1be2c89b69c2b068fc378daa952ba7f163c4a11628f55a4df523b3ef",
            "0x000000000000000000000000a623046b3cb9619bace903a8c6d7a1c0a6723c53",
            "0x000000000000000000000000e03a1074c86cfedd5c142c4f04f1a1536e203543"
          ],
          "data": "0x00000000000000000000000000000000000000000000021e19e0c9bab23ffff0",
          "blockHash": "0x64fb772f1231d0c5c7c36b13dab60490d8234169d1edfa8fe3415b46a90dfa7f",
          "blockNumber": "0x8631f3",
          "transactionHash": "0x646a7f61f7b8b30e85de1cba59da7380883d191678149755286495275b879544",
          "transactionIndex": "0xd1",
          "logIndex": "0x129",
          "removed": false
        },
        {
          "address": "0xbc25817b3aaff773e5f4bea9a73aa0bdd65b5d95",
          "topics": [
            "0xddf252ad1be2c89b69c2b068fc378daa952ba7f163c4a11628f55a4df523b3ef",
            "0x000000000000000000000000a623046b3cb9619bace903a8c6d7a1c0a6723c53",
            "0x000000000000000000000000e03a1074c86cfedd5c142c4f04f1a1536e203543"
          ],
          "data": "0x00000000000000000000000000000000000000000000000026cd4d39b5f2c88f",
          "blockHash": "0x64fb772f1231d0c5c7c36b13dab60490d8234169d1edfa8fe3415b46a90dfa7f",
          "blockNumber": "0x8631f3",
          "transactionHash": "0x646a7f61f7b8b30e85de1cba59da7380883d191678149755286495275b879544",
          "transactionIndex": "0xd1",
          "logIndex": "0x12a",
          "removed": false
        }
      ],
      "logsBloom": "0x00000040000080000000001020000000000000000000800000000000080000000000000000000040088000000001000100000100000000000000000000000010000000000004000000000008000000000004000002000000000000000000000000000040020000000000002080040840000000000000100000000810000000000000000001000008000010000000001000000001000000000000000000200000000004000000000000000000000000000000200000400000000000000080000000000002000000000000000000000000000000000000040800001000000020001000000000000000000000000000000004000000000004000000000000000000",
      "type": "0x2",
      "transactionHash": "0x646a7f61f7b8b30e85de1cba59da7380883d191678149755286495275b879544",
      "transactionIndex": "0xd1",
      "blockHash": "0x64fb772f1231d0c5c7c36b13dab60490d8234169d1edfa8fe3415b46a90dfa7f",
      "blockNumber": "0x8631f3",
      "gasUsed": "0x75ffd",
      "effectiveGasPrice": "0xf424e",
      "from": "0xa623046b3cb9619bace903a8c6d7a1c0a6723c53",
      "to": "0x429ba70129df741b2ca2a85bc3a2a3328e5c09b4",
      "contractAddress": null
    }
  ],
  "libraries": [],
  "pending": [],
  "returns": {},
  "timestamp": 1752892164,
  "chain": 11155111,
  "commit": "0e209e2"
}