{
  "transactions": [
    {
      "hash": "0xc80f68759793c770378ac68abda681d07b9b3cd25be746496f9034cc81773435",
      "transactionType": "CALL",
      "contractName": null,
      "contractAddress": "0xe06c630e2e7bcd63f34dbf71198633c388e85fa3",
      "function": "approve(address,uint256)",
      "arguments": [
        "0x000000000022D473030F116dDEE9F6B43aC78BA3",
        "115792089237316195423570985008687907853269984665640564039457584007913129639935"
      ],
      "transaction": {
        "from": "0xa623046b3cb9619bace903a8c6d7a1c0a6723c53",
        "to": "0xe06c630e2e7bcd63f34dbf71198633c388e85fa3",
        "gas": "0x10da9",
        "value": "0x0",
        "input": "0x095ea7b3000000000000000000000000000000000022d473030f116ddee9f6b43ac78ba3ffffffffffffffffffffffffffffffffffffffffffffffffffffffffffffffff",
        "nonce": "0x42",
        "chainId": "0xaa36a7"
      },
      "additionalContracts": [],
      "isFixedGasLimit": false
    },
    {
      "hash": "0xd590f6b9ac9e8ccad04df0d85a20a7de8ebfd395d5bf20272c2cb21ba7633cc8",
      "transactionType": "CALL",
      "contractName": null,
      "contractAddress": "0x000000000022d473030f116ddee9f6b43ac78ba3",
      "function": "approve(address,address,uint160,uint48)",
      "arguments": [
        "0xE06c630E2e7bCD63f34Dbf71198633C388E85FA3",
        "0x429ba70129df741B2Ca2a85BC3A2a3328e5c09b4",
        "1461501637330902918203684832716283019655932542975",
        "281474976710655"
      ],
      "transaction": {
        "from": "0xa623046b3cb9619bace903a8c6d7a1c0a6723c53",
        "to": "0x000000000022d473030f116ddee9f6b43ac78ba3",
        "gas": "0x1112d",
        "value": "0x0",
        "input": "0x87517c45000000000000000000000000e06c630e2e7bcd63f34dbf71198633c388e85fa3000000000000000000000000429ba70129df741b2ca2a85bc3a2a3328e5c09b4000000000000000000000000ffffffffffffffffffffffffffffffffffffffff0000000000000000000000000000000000000000000000000000ffffffffffff",
        "nonce": "0x43",
        "chainId": "0xaa36a7"
      },
      "additionalContracts": [],
      "isFixedGasLimit": false
    },
    {
      "hash": "0x426801125a5f9244dd10b1ed125e3918a64c16881281b5dd4934bba34cb29193",
      "transactionType": "CALL",
      "contractName": null,
      "contractAddress": "0xc83fe969e7152420ffe02f4da2bc1c5ad09d73ac",
      "function": "approve(address,uint256)",
      "arguments": [
        "0x000000000022D473030F116dDEE9F6B43aC78BA3",
        "115792089237316195423570985008687907853269984665640564039457584007913129639935"
      ],
      "transaction": {
        "from": "0xa623046b3cb9619bace903a8c6d7a1c0a6723c53",
        "to": "0xc83fe969e7152420ffe02f4da2bc1c5ad09d73ac",
        "gas": "0x10da9",
        "value": "0x0",
        "input": "0x095ea7b3000000000000000000000000000000000022d473030f116ddee9f6b43ac78ba3ffffffffffffffffffffffffffffffffffffffffffffffffffffffffffffffff",
        "nonce": "0x44",
        "chainId": "0xaa36a7"
      },
      "additionalContracts": [],
      "isFixedGasLimit": false
    },
    {
      "hash": "0x1ed3bf0e215aadf2fa04b85168e17f7f7c10ef27fb22994104b7a1329ae0a932",
      "transactionType": "CALL",
      "contractName": null,
      "contractAddress": "0x000000000022d473030f116ddee9f6b43ac78ba3",
      "function": "approve(address,address,uint160,uint48)",
      "arguments": [
        "0xc83fe969e7152420FFe02f4dA2bc1c5ad09d73ac",
        "0x429ba70129df741B2Ca2a85BC3A2a3328e5c09b4",
        "1461501637330902918203684832716283019655932542975",
        "281474976710655"
      ],
      "transaction": {
        "from": "0xa623046b3cb9619bace903a8c6d7a1c0a6723c53",
        "to": "0x000000000022d473030f116ddee9f6b43ac78ba3",
        "gas": "0x1112d",
        "value": "0x0",
        "input": "0x87517c45000000000000000000000000c83fe969e7152420ffe02f4da2bc1c5ad09d73ac000000000000000000000000429ba70129df741b2ca2a85bc3a2a3328e5c09b4000000000000000000000000ffffffffffffffffffffffffffffffffffffffff0000000000000000000000000000000000000000000000000000ffffffffffff",
        "nonce": "0x45",
        "chainId": "0xaa36a7"
      },
      "additionalContracts": [],
      "isFixedGasLimit": false
    },
    {
      "hash": "0x9a3260c600a2f531f27983d41f7be320e2625878f9fcbd40494f75bdab35eca5",
      "transactionType": "CALL",
      "contractName": null,
      "contractAddress": "0x429ba70129df741b2ca2a85bc3a2a3328e5c09b4",
      "function": "multicall(bytes[])",
      "arguments": [
        "[0xf7020405000000000000000000000000c83fe969e7152420ffe02f4da2bc1c5ad09d73ac000000000000000000000000e06c630e2e7bcd63f34dbf71198633c388e85fa300000000000000000000000000000000000000000000000000000000000001f4000000000000000000000000000000000000000000000000000000000000000a00000000000000000000000000000000000000000000000000000000000000000000000000000000000000000000000000000003298b075b4b6a52409457906100000000000000000000000000000000000000000000000000000000000000e00000000000000000000000000000000000000000000000000000000000000000, 0xdd46508f000000000000000000000000000000000000000000000000000000000000004000000000000000000000000000000000000000000000000000000000687b076c0000000000000000000000000000000000000000000000000000000000000400000000000000000000000000000000000000000000000000000000000000004000000000000000000000000000000000000000000000000000000000000000800000000000000000000000000000000000000000000000000000000000000004020d14140000000000000000000000000000000000000000000000000000000000000000000000000000000000000000000000000000000000000000000000040000000000000000000000000000000000000000000000000000000000000080000000000000000000000000000000000000000000000000000000000000024000000000000000000000000000000000000000000000000000000000000002a0000000000000000000000000000000000000000000000000000000000000030000000000000000000000000000000000000000000000000000000000000001a0000000000000000000000000c83fe969e7152420ffe02f4da2bc1c5ad09d73ac000000000000000000000000e06c630e2e7bcd63f34dbf71198633c388e85fa300000000000000000000000000000000000000000000000000000000000001f4000000000000000000000000000000000000000000000000000000000000000a00000000000000000000000000000000000000000000000000000000000000000000000000000000000000000000000000000000000000000000000000003ca0000000000000000000000000000000000000000000000000000000000000773800000000000000000000000000000000000000000000000000000000009a311700000000000000000000000000000000000000000000000000000000000f42410000000000000000000000000000000000000000000000000000000000989681000000000000000000000000a623046b3cb9619bace903a8c6d7a1c0a6723c53000000000000000000000000000000000000000000000000000000000000018000000000000000000000000000000000000000000000000000000000000000000000000000000000000000000000000000000000000000000000000000000040000000000000000000000000c83fe969e7152420ffe02f4da2bc1c5ad09d73ac000000000000000000000000e06c630e2e7bcd63f34dbf71198633c388e85fa30000000000000000000000000000000000000000000000000000000000000040000000000000000000000000c83fe969e7152420ffe02f4da2bc1c5ad09d73ac000000000000000000000000a623046b3cb9619bace903a8c6d7a1c0a6723c530000000000000000000000000000000000000000000000000000000000000040000000000000000000000000e06c630e2e7bcd63f34dbf71198633c388e85fa3000000000000000000000000a623046b3cb9619bace903a8c6d7a1c0a6723c53]"
      ],
      "transaction": {
        "from": "0xa623046b3cb9619bace903a8c6d7a1c0a6723c53",
        "to": "0x429ba70129df741b2ca2a85bc3a2a3328e5c09b4",
        "gas": "0xa352e",
        "value": "0x0",
        "input": "0xac9650d800000000000000000000000000000000000000000000000000000000000000200000000000000000000000000000000000000000000000000000000000000002000000000000000000000000000000000000000000000000000000000000004000000000000000000000000000000000000000000000000000000000000001800000000000000000000000000000000000000000000000000000000000000104f7020405000000000000000000000000c83fe969e7152420ffe02f4da2bc1c5ad09d73ac000000000000000000000000e06c630e2e7bcd63f34dbf71198633c388e85fa300000000000000000000000000000000000000000000000000000000000001f4000000000000000000000000000000000000000000000000000000000000000a00000000000000000000000000000000000000000000000000000000000000000000000000000000000000000000000000000003298b075b4b6a52409457906100000000000000000000000000000000000000000000000000000000000000e00000000000000000000000000000000000000000000000000000000000000000000000000000000000000000000000000000000000000000000000000000000000000000000000000000000000000000000000000000000000000464dd46508f000000000000000000000000000000000000000000000000000000000000004000000000000000000000000000000000000000000000000000000000687b076c0000000000000000000000000000000000000000000000000000000000000400000000000000000000000000000000000000000000000000000000000000004000000000000000000000000000000000000000000000000000000000000000800000000000000000000000000000000000000000000000000000000000000004020d14140000000000000000000000000000000000000000000000000000000000000000000000000000000000000000000000000000000000000000000000040000000000000000000000000000000000000000000000000000000000000080000000000000000000000000000000000000000000000000000000000000024000000000000000000000000000000000000000000000000000000000000002a0000000000000000000000000000000000000000000000000000000000000030000000000000000000000000000000000000000000000000000000000000001a0000000000000000000000000c83fe969e7152420ffe02f4da2bc1c5ad09d73ac000000000000000000000000e06c630e2e7bcd63f34dbf71198633c388e85fa300000000000000000000000000000000000000000000000000000000000001f4000000000000000000000000000000000000000000000000000000000000000a00000000000000000000000000000000000000000000000000000000000000000000000000000000000000000000000000000000000000000000000000003ca0000000000000000000000000000000000000000000000000000000000000773800000000000000000000000000000000000000000000000000000000009a311700000000000000000000000000000000000000000000000000000000000f42410000000000000000000000000000000000000000000000000000000000989681000000000000000000000000a623046b3cb9619bace903a8c6d7a1c0a6723c53000000000000000000000000000000000000000000000000000000000000018000000000000000000000000000000000000000000000000000000000000000000000000000000000000000000000000000000000000000000000000000000040000000000000000000000000c83fe969e7152420ffe02f4da2bc1c5ad09d73ac000000000000000000000000e06c630e2e7bcd63f34dbf71198633c388e85fa30000000000000000000000000000000000000000000000000000000000000040000000000000000000000000c83fe969e7152420ffe02f4da2bc1c5ad09d73ac000000000000000000000000a623046b3cb9619bace903a8c6d7a1c0a6723c530000000000000000000000000000000000000000000000000000000000000040000000000000000000000000e06c630e2e7bcd63f34dbf71198633c388e85fa3000000000000000000000000a623046b3cb9619bace903a8c6d7a1c0a6723c5300000000000000000000000000000000000000000000000000000000",
        "nonce": "0x46",
        "chainId": "0xaa36a7"
      },
      "additionalContracts": [],
      "isFixedGasLimit": false
    }
  ],
  "receipts": [
    {
      "status": "0x1",
      "cumulativeGasUsed": "0xb3b290",
      "logs": [
        {
          "address": "0xe06c630e2e7bcd63f34dbf71198633c388e85fa3",
          "topics": [
            "0x8c5be1e5ebec7d5bd14f71427d1e84f3dd0314c0f7b2291e5b200ac8c7c3b925",
            "0x000000000000000000000000a623046b3cb9619bace903a8c6d7a1c0a6723c53",
            "0x000000000000000000000000000000000022d473030f116ddee9f6b43ac78ba3"
          ],
          "data": "0xffffffffffffffffffffffffffffffffffffffffffffffffffffffffffffffff",
          "blockHash": "0x3093c6835d88606d40a6a7fa8869e8f403ba434cfcb85868808f8f04143bf1f6",
          "blockNumber": "0x863135",
          "transactionHash": "0xc80f68759793c770378ac68abda681d07b9b3cd25be746496f9034cc81773435",
          "transactionIndex": "0xbb",
          "logIndex": "0xd0",
          "removed": false
        }
      ],
      "logsBloom": "0x00000000000000000000000000000000000000000000000000000000000000000000000000000000008000000000000000000000800000000000000800200010000000000020000000004000100000000000000000000800000000000000000000000040000000000000000000000000000000000000000000000000000000000000000000000000000000000000000000000000000000000000000000000000020000000000000000000000000000000000000000000000000000000000000000000000000000000000000000000000000000000000000000000000000000000010000000000000000000000000000000000000000000000000000000000000",
      "type": "0x2",
      "transactionHash": "0xc80f68759793c770378ac68abda681d07b9b3cd25be746496f9034cc81773435",
      "transactionIndex": "0xbb",
      "blockHash": "0x3093c6835d88606d40a6a7fa8869e8f403ba434cfcb85868808f8f04143bf1f6",
      "blockNumber": "0x863135",
      "gasUsed": "0xb863",
      "effectiveGasPrice": "0xf4250",
      "from": "0xa623046b3cb9619bace903a8c6d7a1c0a6723c53",
      "to": "0xe06c630e2e7bcd63f34dbf71198633c388e85fa3",
      "contractAddress": null
    },
    {
      "status": "0x1",
      "cumulativeGasUsed": "0x1fbba3b",
      "logs": [
        {
          "address": "0x000000000022d473030f116ddee9f6b43ac78ba3",
          "topics": [
            "0xda9fa7c1b00402c17d0161b249b1ab8bbec047c5a52207b9c112deffd817036b",
            "0x000000000000000000000000a623046b3cb9619bace903a8c6d7a1c0a6723c53",
            "0x000000000000000000000000e06c630e2e7bcd63f34dbf71198633c388e85fa3",
            "0x000000000000000000000000429ba70129df741b2ca2a85bc3a2a3328e5c09b4"
          ],
          "data": "0x000000000000000000000000ffffffffffffffffffffffffffffffffffffffff0000000000000000000000000000000000000000000000000000ffffffffffff",
          "blockHash": "0xdb1363068f7a3e5a369104739c1e7fcd1d000b52f3a26d639ed6fe84d8c51557",
          "blockNumber": "0x863138",
          "transactionHash": "0xd590f6b9ac9e8ccad04df0d85a20a7de8ebfd395d5bf20272c2cb21ba7633cc8",
          "transactionIndex": "0x181",
          "logIndex": "0x20e",
          "removed": false
        }
      ],
      "logsBloom": "0x00010000000000000000000000000000000000000000000000000000000000000000000040000040088000000000000000000000000000000000000000080010000000000000000000000000000000000000000000000000000000000000000000000040000000000004000000000000000000000000000000000800000000000020000000000020000000000000000000000000000000000000000000000000000000000000000000000000000000000000000000000000000000080000000000000000000000000000000000000000000000000000000040000000000000000000000000000000000000000000000000000000000000000000000000000400",
      "type": "0x2",
      "transactionHash": "0xd590f6b9ac9e8ccad04df0d85a20a7de8ebfd395d5bf20272c2cb21ba7633cc8",
      "transactionIndex": "0x181",
      "blockHash": "0xdb1363068f7a3e5a369104739c1e7fcd1d000b52f3a26d639ed6fe84d8c51557",
      "blockNumber": "0x863138",
      "gasUsed": "0xbaca",
      "effectiveGasPrice": "0xf424f",
      "from": "0xa623046b3cb9619bace903a8c6d7a1c0a6723c53",
      "to": "0x000000000022d473030f116ddee9f6b43ac78ba3",
      "contractAddress": null
    },
    {
      "status": "0x1",
      "cumulativeGasUsed": "0x29627e6",
      "logs": [
        {
          "address": "0xc83fe969e7152420ffe02f4da2bc1c5ad09d73ac",
          "topics": [
            "0x8c5be1e5ebec7d5bd14f71427d1e84f3dd0314c0f7b2291e5b200ac8c7c3b925",
            "0x000000000000000000000000a623046b3cb9619bace903a8c6d7a1c0a6723c53",
            "0x000000000000000000000000000000000022d473030f116ddee9f6b43ac78ba3"
          ],
          "data": "0xffffffffffffffffffffffffffffffffffffffffffffffffffffffffffffffff",
          "blockHash": "0x7991701bae960c5f99dbf36c7a9bfe2a24db885c8947199487e63c1f89038be9",
          "blockNumber": "0x86313b",
          "transactionHash": "0x426801125a5f9244dd10b1ed125e3918a64c16881281b5dd4934bba34cb29193",
          "transactionIndex": "0x13a",
          "logIndex": "0x1ae",
          "removed": false
        }
      ],
      "logsBloom": "0x00000000000000000000000000000000000000000000000000000000040000000000000000000000008000000000000000000000800000000000000000200010000000000020000000004000800000000000000000000800000000000000000000000040000000000000000000000000000000000000000000000000000000000000000000000000000000000000000000000000000000000000000000000000020000000000000000000000000000000000000000000000000000000000000000000000000000000000000000000000000000000000000000000000000000000010000000000000000000000000000000000000000000000000000000000000",
      "type": "0x2",
      "transactionHash": "0x426801125a5f9244dd10b1ed125e3918a64c16881281b5dd4934bba34cb29193",
      "transactionIndex": "0x13a",
      "blockHash": "0x7991701bae960c5f99dbf36c7a9bfe2a24db885c8947199487e63c1f89038be9",
      "blockNumber": "0x86313b",
      "gasUsed": "0xb863",
      "effectiveGasPrice": "0xf424e",
      "from": "0xa623046b3cb9619bace903a8c6d7a1c0a6723c53",
      "to": "0xc83fe969e7152420ffe02f4da2bc1c5ad09d73ac",
      "contractAddress": null
    },
    {
      "status": "0x1",
      "cumulativeGasUsed": "0x1422bff",
      "logs": [
        {
          "address": "0x000000000022d473030f116ddee9f6b43ac78ba3",
          "topics": [
            "0xda9fa7c1b00402c17d0161b249b1ab8bbec047c5a52207b9c112deffd817036b",
            "0x000000000000000000000000a623046b3cb9619bace903a8c6d7a1c0a6723c53",
            "0x000000000000000000000000c83fe969e7152420ffe02f4da2bc1c5ad09d73ac",
            "0x000000000000000000000000429ba70129df741b2ca2a85bc3a2a3328e5c09b4"
          ],
          "data": "0x000000000000000000000000ffffffffffffffffffffffffffffffffffffffff0000000000000000000000000000000000000000000000000000ffffffffffff",
          "blockHash": "0xddac12263afed786b4d1c13837fec6509201802a934430a7c77dd8da6158b8a9",
          "blockNumber": "0x86313d",
          "transactionHash": "0x1ed3bf0e215aadf2fa04b85168e17f7f7c10ef27fb22994104b7a1329ae0a932",
          "transactionIndex": "0xe7",
          "logIndex": "0x168",
          "removed": false
        }
      ],
      "logsBloom": "0x00010000000000000000000000000000000000000000000000000000000000000000000200000040088000000000000000000000000000000000000000080010000000000000000000000000000000000000000000000000000000000000000000000040000000000000000000000000000000000000000040000800000000000020000000000000000000000000000000000000000000000000000000000000000000000000000000000000000000000000000000000000000000080000000000000000000000000000000000000000000000000000000040000000000000000000000000000000000000000000000000000000000000000000002000000400",
      "type": "0x2",
      "transactionHash": "0x1ed3bf0e215aadf2fa04b85168e17f7f7c10ef27fb22994104b7a1329ae0a932",
      "transactionIndex": "0xe7",
      "blockHash": "0xddac12263afed786b4d1c13837fec6509201802a934430a7c77dd8da6158b8a9",
      "blockNumber": "0x86313d",
      "gasUsed": "0xbaca",
      "effectiveGasPrice": "0xf424f",
      "from": "0xa623046b3cb9619bace903a8c6d7a1c0a6723c53",
      "to": "0x000000000022d473030f116ddee9f6b43ac78ba3",
      "contractAddress": null
    },
    {
      "status": "0x1",
      "cumulativeGasUsed": "0x1d01c36",
      "logs": [
        {
          "address": "0xe03a1074c86cfedd5c142c4f04f1a1536e203543",
          "topics": [
            "0xdd466e674ea557f56295e2d0218a125ea4b4f0f6f3307b95f85e6110838d6438",
            "0xeea236b084f6d8ea463d2592986393bf7d2ed012c6a6d5f935b095c68a27941b",
            "0x000000000000000000000000c83fe969e7152420ffe02f4da2bc1c5ad09d73ac",
            "0x000000000000000000000000e06c630e2e7bcd63f34dbf71198633c388e85fa3"
          ],
          "data": "0x00000000000000000000000000000000000000000000000000000000000001f4000000000000000000000000000000000000000000000000000000000000000a00000000000000000000000000000000000000000000000000000000000000000000000000000000000000000000000000000003298b075b4b6a52409457906100000000000000000000000000000000000000000000000000000000000059f3",
          "blockHash": "0x22684c7810c3c7ff8b2ec03dec427ceb2772df78bedd7163590daab0b9c8be08",
          "blockNumber": "0x86313e",
          "transactionHash": "0x9a3260c600a2f531f27983d41f7be320e2625878f9fcbd40494f75bdab35eca5",
          "transactionIndex": "0xb4",
          "logIndex": "0xf5",
          "removed": false
        },
        {
          "address": "0x429ba70129df741b2ca2a85bc3a2a3328e5c09b4",
          "topics": [
            "0xddf252ad1be2c89b69c2b068fc378daa952ba7f163c4a11628f55a4df523b3ef",
            "0x0000000000000000000000000000000000000000000000000000000000000000",
            "0x000000000000000000000000a623046b3cb9619bace903a8c6d7a1c0a6723c53",
            "0x0000000000000000000000000000000000000000000000000000000000003af7"
          ],
          "data": "0x",
          "blockHash": "0x22684c7810c3c7ff8b2ec03dec427ceb2772df78bedd7163590daab0b9c8be08",
          "blockNumber": "0x86313e",
          "transactionHash": "0x9a3260c600a2f531f27983d41f7be320e2625878f9fcbd40494f75bdab35eca5",
          "transactionIndex": "0xb4",
          "logIndex": "0xf6",
          "removed": false
        },
        {
          "address": "0xe03a1074c86cfedd5c142c4f04f1a1536e203543",
          "topics": [
            "0xf208f4912782fd25c7f114ca3723a2d5dd6f3bcc3ac8db5af63baa85f711d5ec",
            "0xeea236b084f6d8ea463d2592986393bf7d2ed012c6a6d5f935b095c68a27941b",
            "0x000000000000000000000000429ba70129df741b2ca2a85bc3a2a3328e5c09b4"
          ],
          "data": "0x0000000000000000000000000000000000000000000000000000000000003ca0000000000000000000000000000000000000000000000000000000000000773800000000000000000000000000000000000000000000000000000000009a31170000000000000000000000000000000000000000000000000000000000003af7",
          "blockHash": "0x22684c7810c3c7ff8b2ec03dec427ceb2772df78bedd7163590daab0b9c8be08",
          "blockNumber": "0x86313e",
          "transactionHash": "0x9a3260c600a2f531f27983d41f7be320e2625878f9fcbd40494f75bdab35eca5",
          "transactionIndex": "0xb4",
          "logIndex": "0xf7",
          "removed": false
        },
        {
          "address": "0xc83fe969e7152420ffe02f4da2bc1c5ad09d73ac",
          "topics": [
            "0xddf252ad1be2c89b69c2b068fc378daa952ba7f163c4a11628f55a4df523b3ef",
            "0x000000000000000000000000a623046b3cb9619bace903a8c6d7a1c0a6723c53",
            "0x000000000000000000000000e03a1074c86cfedd5c142c4f04f1a1536e203543"
          ],
          "data": "0x00000000000000000000000000000000000000000000000000000000000f3c3f",
          "blockHash": "0x22684c7810c3c7ff8b2ec03dec427ceb2772df78bedd7163590daab0b9c8be08",
          "blockNumber": "0x86313e",
          "transactionHash": "0x9a3260c600a2f531f27983d41f7be320e2625878f9fcbd40494f75bdab35eca5",
          "transactionIndex": "0xb4",
          "logIndex": "0xf8",
          "removed": false
        },
        {
          "address": "0xe06c630e2e7bcd63f34dbf71198633c388e85fa3",
          "topics": [
            "0xddf252ad1be2c89b69c2b068fc378daa952ba7f163c4a11628f55a4df523b3ef",
            "0x000000000000000000000000a623046b3cb9619bace903a8c6d7a1c0a6723c53",
            "0x000000000000000000000000e03a1074c86cfedd5c142c4f04f1a1536e203543"
          ],
          "data": "0x0000000000000000000000000000000000000000000000000000000000989680",
          "blockHash": "0x22684c7810c3c7ff8b2ec03dec427ceb2772df78bedd7163590daab0b9c8be08",
          "blockNumber": "0x86313e",
          "transactionHash": "0x9a3260c600a2f531f27983d41f7be320e2625878f9fcbd40494f75bdab35eca5",
          "transactionIndex": "0xb4",
          "logIndex": "0xf9",
          "removed": false
        }
      ],
      "logsBloom": "0x000000000000000000000010000002800000000000000000000000008c0000000000000240000040088000000040000000000100000000000000000800000010000000000020000000000008910000000000000000000000000000000000000000000040020000000004000080000800000000000000100040000810000000000000000001000028000010000000000000000001000000000000000000200000000004000000000000000000000000000000000000400000000000000000000000000002000000000000000000000000000000000000000000001000000020001000000000000020000000000000000004000000000000000000002000000000",
      "type": "0x2",
      "transactionHash": "0x9a3260c600a2f531f27983d41f7be320e2625878f9fcbd40494f75bdab35eca5",
      "transactionIndex": "0xb4",
      "blockHash": "0x22684c7810c3c7ff8b2ec03dec427ceb2772df78bedd7163590daab0b9c8be08",
      "blockNumber": "0x86313e",
      "gasUsed": "0x6facb",
      "effectiveGasPrice": "0xf424f",
      "from": "0xa623046b3cb9619bace903a8c6d7a1c0a6723c53",
      "to": "0x429ba70129df741b2ca2a85bc3a2a3328e5c09b4",
      "contractAddress": null
    }
  ],
  "libraries": [],
  "pending": [],
  "returns": {},
  "timestamp": 1752889836,
  "chain": 11155111,
  "commit": "0e209e2"
}