{
  "transactions": [
    {
      "hash": "0xd504ae2b5500995e83dd57fa8e193b76bbc55a38b760807b0a47d2d4285f00fd",
      "transactionType": "CALL",
      "contractName": null,
      "contractAddress": "0x75faf114eafb1bdbe2f0316df893fd58ce46aa4d",
      "function": "approve(address,uint256)",
      "arguments": [
        "0x39e08934FB9b095a62B2C77b249AA1ce81759402",
        "115792089237316195423570985008687907853269984665640564039457584007913129639935"
      ],
      "transaction": {
        "from": "0xa623046b3cb9619bace903a8c6d7a1c0a6723c53",
        "to": "0x75faf114eafb1bdbe2f0316df893fd58ce46aa4d",
        "gas": "0xc64f",
        "value": "0x0",
        "input": "0x095ea7b300000000000000000000000039e08934fb9b095a62b2c77b249aa1ce81759402ffffffffffffffffffffffffffffffffffffffffffffffffffffffffffffffff",
        "nonce": "0x18",
        "chainId": "0x66eee"
      },
      "additionalContracts": [],
      "isFixedGasLimit": false
    },
    {
      "hash": "0x3d60f70c8c1f216d229877217da180dfa17228629bdb0151e743567ad623b423",
      "transactionType": "CALL",
      "contractName": null,
      "contractAddress": "0x82b9e52b26a2954e113f94ff26647754d5a4247d",
      "function": "approve(address,uint256)",
      "arguments": [
        "0x39e08934FB9b095a62B2C77b249AA1ce81759402",
        "115792089237316195423570985008687907853269984665640564039457584007913129639935"
      ],
      "transaction": {
        "from": "0xa623046b3cb9619bace903a8c6d7a1c0a6723c53",
        "to": "0x82b9e52b26a2954e113f94ff26647754d5a4247d",
        "gas": "0xb890",
        "value": "0x0",
        "input": "0x095ea7b300000000000000000000000039e08934fb9b095a62b2c77b249aa1ce81759402ffffffffffffffffffffffffffffffffffffffffffffffffffffffffffffffff",
        "nonce": "0x19",
        "chainId": "0x66eee"
      },
      "additionalContracts": [],
      "isFixedGasLimit": false
    },
    {
      "hash": "0x562b4beb80eb1aeace521ba76fb5575dfd81d3bcafabf3e3f57bab1d0bda67c8",
      "transactionType": "CALL",
      "contractName": null,
      "contractAddress": "0x39e08934fb9b095a62b2c77b249aa1ce81759402",
      "function": "swapExactTokensForTokens(uint256,uint256,bool,(address,address,uint24,int24,address),bytes,address,uint256)",
      "arguments": [
        "1000000",
        "0",
        "true",
        "(0x75faf114eafb1BDbe2F0316DF893fd58CE46AA4d, 0x82B9e52b26A2954E113F94Ff26647754d5a4247D, 8388608, 10, 0xc588c10682461BacFB24d14f75D1a60f0E9E6080)",
        "0x",
        "0x0d2Dc4E9ebc1465E86Fdf6ab18377CB82eCf7548",
        "1752544548"
      ],
      "transaction": {
        "from": "0xa623046b3cb9619bace903a8c6d7a1c0a6723c53",
        "to": "0x39e08934fb9b095a62b2c77b249aa1ce81759402",
        "gas": "0x4cc09",
        "value": "0x0",
        "input": "0xb1a0d57100000000000000000000000000000000000000000000000000000000000f42400000000000000000000000000000000000000000000000000000000000000000000000000000000000000000000000000000000000000000000000000000000100000000000000000000000075faf114eafb1bdbe2f0316df893fd58ce46aa4d00000000000000000000000082b9e52b26a2954e113f94ff26647754d5a4247d0000000000000000000000000000000000000000000000000000000000800000000000000000000000000000000000000000000000000000000000000000000a000000000000000000000000c588c10682461bacfb24d14f75d1a60f0e9e608000000000000000000000000000000000000000000000000000000000000001600000000000000000000000000d2dc4e9ebc1465e86fdf6ab18377cb82ecf7548000000000000000000000000000000000000000000000000000000006875b5240000000000000000000000000000000000000000000000000000000000000000",
        "nonce": "0x1a",
        "chainId": "0x66eee"
      },
      "additionalContracts": [],
      "isFixedGasLimit": false
    }
  ],
  "receipts": [
    {
      "status": "0x1",
      "cumulativeGasUsed": "0x971d",
      "logs": [
        {
          "address": "0x75faf114eafb1bdbe2f0316df893fd58ce46aa4d",
          "topics": [
            "0x8c5be1e5ebec7d5bd14f71427d1e84f3dd0314c0f7b2291e5b200ac8c7c3b925",
            "0x000000000000000000000000a623046b3cb9619bace903a8c6d7a1c0a6723c53",
            "0x00000000000000000000000039e08934fb9b095a62b2c77b249aa1ce81759402"
          ],
          "data": "0xffffffffffffffffffffffffffffffffffffffffffffffffffffffffffffffff",
          "blockHash": "0xd0fdf0c8569cbe08d6bf4d3d423b3468b630dac0aa6ba85e66b697e93792f593",
          "blockNumber": "0xa594ff8",
          "transactionHash": "0xd504ae2b5500995e83dd57fa8e193b76bbc55a38b760807b0a47d2d4285f00fd",
          "transactionIndex": "0x1",
          "logIndex": "0x0",
          "removed": false
        }
      ],
      "logsBloom": "0x00000000000000000000000000000000000000000000000000000000000000000000000000000000008000000000000000000000000000000020000000200010800000000000000000000000000000000000000000000000000000000000000000000040000000000000000000000000000000000000000000000000000000000000000000000000000000000000000000000000000000000000000000000000020000000000008000000000000000000000000000000000000000000000000000000000000000000000000000000000000000000000000000000000000000000010000000020000000000000000000000000000000000000100000000000004",
      "type": "0x2",
      "transactionHash": "0xd504ae2b5500995e83dd57fa8e193b76bbc55a38b760807b0a47d2d4285f00fd",
      "transactionIndex": "0x1",
      "blockHash": "0xd0fdf0c8569cbe08d6bf4d3d423b3468b630dac0aa6ba85e66b697e93792f593",
      "blockNumber": "0xa594ff8",
      "gasUsed": "0x971d",
      "effectiveGasPrice": "0x5f5e100",
      "from": "0xa623046b3cb9619bace903a8c6d7a1c0a6723c53",
      "to": "0x75faf114eafb1bdbe2f0316df893fd58ce46aa4d",
      "contractAddress": null,
      "gasUsedForL1": "0x0",
      "l1BlockNumber": "0x85c21a",
      "timeboosted": false
    },
    {
      "status": "0x1",
      "cumulativeGasUsed": "0x58445",
      "logs": [
        {
          "address": "0x82b9e52b26a2954e113f94ff26647754d5a4247d",
          "topics": [
            "0x8c5be1e5ebec7d5bd14f71427d1e84f3dd0314c0f7b2291e5b200ac8c7c3b925",
            "0x000000000000000000000000a623046b3cb9619bace903a8c6d7a1c0a6723c53",
            "0x00000000000000000000000039e08934fb9b095a62b2c77b249aa1ce81759402"
          ],
          "data": "0xffffffffffffffffffffffffffffffffffffffffffffffffffffffffffffffff",
          "blockHash": "0x23d932cf698bb50590ac560e80d82073cee3f111e460092de5febb2f1e28296a",
          "blockNumber": "0xa594ffc",
          "transactionHash": "0x3d60f70c8c1f216d229877217da180dfa17228629bdb0151e743567ad623b423",
          "transactionIndex": "0x4",
          "logIndex": "0xa",
          "removed": false
        }
      ],
      "logsBloom": "0x00000000000000000000800000000000000000000000000000000000000020000000000000000000008000000000000000000000000000000020000000200010000000000000000000000000000000000000000000000000000000000000000000000040000000000000000000000000000000000000000000000000000000000000000000000000000000000000000000000000000000000000000000000000020000000000008000000000000000000000000000000000000000000000000000000000000000000000000000000000000000000000000000000000000000000030000000020000000000000000000000000000000000000000000000000000",
      "type": "0x2",
      "transactionHash": "0x3d60f70c8c1f216d229877217da180dfa17228629bdb0151e743567ad623b423",
      "transactionIndex": "0x4",
      "blockHash": "0x23d932cf698bb50590ac560e80d82073cee3f111e460092de5febb2f1e28296a",
      "blockNumber": "0xa594ffc",
      "gasUsed": "0x8c8f",
      "effectiveGasPrice": "0x5f5e100",
      "from": "0xa623046b3cb9619bace903a8c6d7a1c0a6723c53",
      "to": "0x82b9e52b26a2954e113f94ff26647754d5a4247d",
      "contractAddress": null,
      "gasUsedForL1": "0x0",
      "l1BlockNumber": "0x85c21b",
      "timeboosted": false
    },
    {
      "status": "0x1",
      "cumulativeGasUsed": "0x530c9",
      "logs": [
        {
          "address": "0xfb3e0c6f74eb1a21cc1da29aec80d2dfe6c9a317",
          "topics": [
            "0x40e9cecb9f5f1f1c5b9c97dec2917b7ee92e57ba5563708daca94dd84ad7112f",
            "0x3b128aadf200ea65c363e86b07c09170cedf250db24a8a193c806d66b05a7295",
            "0x00000000000000000000000039e08934fb9b095a62b2c77b249aa1ce81759402"
          ],
          "data": "0xfffffffffffffffffffffffffffffffffffffffffffffffffffffffffff0bdc000000000000000000000000000000000000000000000000000000000011dc646000000000000000000000000000000000000000453dec83477700413c474c7ab00000000000000000000000000000000000000000000000000000003386ec5f90000000000000000000000000000000000000000000000000000000000007275000000000000000000000000000000000000000000000000000000000000012c",
          "blockHash": "0x9ba0d00ee529e023160586551bbd452055210c16c4f69ce00b50a886ec138c1c",
          "blockNumber": "0xa595000",
          "transactionHash": "0x562b4beb80eb1aeace521ba76fb5575dfd81d3bcafabf3e3f57bab1d0bda67c8",
          "transactionIndex": "0x2",
          "logIndex": "0x3",
          "removed": false
        },
        {
          "address": "0x75faf114eafb1bdbe2f0316df893fd58ce46aa4d",
          "topics": [
            "0xddf252ad1be2c89b69c2b068fc378daa952ba7f163c4a11628f55a4df523b3ef",
            "0x000000000000000000000000a623046b3cb9619bace903a8c6d7a1c0a6723c53",
            "0x000000000000000000000000fb3e0c6f74eb1a21cc1da29aec80d2dfe6c9a317"
          ],
          "data": "0x00000000000000000000000000000000000000000000000000000000000f4240",
          "blockHash": "0x9ba0d00ee529e023160586551bbd452055210c16c4f69ce00b50a886ec138c1c",
          "blockNumber": "0xa595000",
          "transactionHash": "0x562b4beb80eb1aeace521ba76fb5575dfd81d3bcafabf3e3f57bab1d0bda67c8",
          "transactionIndex": "0x2",
          "logIndex": "0x4",
          "removed": false
        },
        {
          "address": "0x82b9e52b26a2954e113f94ff26647754d5a4247d",
          "topics": [
            "0xddf252ad1be2c89b69c2b068fc378daa952ba7f163c4a11628f55a4df523b3ef",
            "0x000000000000000000000000fb3e0c6f74eb1a21cc1da29aec80d2dfe6c9a317",
            "0x0000000000000000000000000d2dc4e9ebc1465e86fdf6ab18377cb82ecf7548"
          ],
          "data": "0x00000000000000000000000000000000000000000000000000000000011dc646",
          "blockHash": "0x9ba0d00ee529e023160586551bbd452055210c16c4f69ce00b50a886ec138c1c",
          "blockNumber": "0xa595000",
          "transactionHash": "0x562b4beb80eb1aeace521ba76fb5575dfd81d3bcafabf3e3f57bab1d0bda67c8",
          "transactionIndex": "0x2",
          "logIndex": "0x5",
          "removed": false
        }
      ],
      "logsBloom": "0x00000040000000000000810000000008000000000020000000000000000020000000000000000000008000000000000000000000040000000020000004000050800000000000000000000008000000000000000000000020000000000000000000000040000400000000000000000000000400000000000000000010000000000000000000000000000000000000000000000000000000000000000000000000000000000000008800000020000000000000000000000000000000000000000000000002000000000000000000000000000000000000000000000000800000000020000000020000004000000000000000000000000000000100000000000004",
      "type": "0x2",
      "transactionHash": "0x562b4beb80eb1aeace521ba76fb5575dfd81d3bcafabf3e3f57bab1d0bda67c8",
      "transactionIndex": "0x2",
      "blockHash": "0x9ba0d00ee529e023160586551bbd452055210c16c4f69ce00b50a886ec138c1c",
      "blockNumber": "0xa595000",
      "gasUsed": "0x398e7",
      "effectiveGasPrice": "0x5f5e100",
      "from": "0xa623046b3cb9619bace903a8c6d7a1c0a6723c53",
      "to": "0x39e08934fb9b095a62b2c77b249aa1ce81759402",
      "contractAddress": null,
      "gasUsedForL1": "0x0",
      "l1BlockNumber": "0x85c21b",
      "timeboosted": false
    }
  ],
  "libraries": [],
  "pending": [],
  "returns": {},
  "timestamp": 1752540960,
  "chain": 421614,
  "commit": "c4c1374"
}