{
  "transactions": [
    {
      "hash": "0x9a5d29958b2dd68e00d448d9c2982d579c36d17387a15962eec64c4e3aefcfa7",
      "transactionType": "CALL",
      "contractName": null,
      "contractAddress": "0x75faf114eafb1bdbe2f0316df893fd58ce46aa4d",
      "function": "approve(address,uint256)",
      "arguments": [
        "0x39e08934FB9b095a62B2C77b249AA1ce81759402",
        "115792089237316195423570985008687907853269984665640564039457584007913129639935"
      ],
      "transaction": {
        "from": "0xa623046b3cb9619bace903a8c6d7a1c0a6723c53",
        "to": "0x75faf114eafb1bdbe2f0316df893fd58ce46aa4d",
        "gas": "0x11f5d",
        "value": "0x0",
        "input": "0x095ea7b300000000000000000000000039e08934fb9b095a62b2c77b249aa1ce81759402ffffffffffffffffffffffffffffffffffffffffffffffffffffffffffffffff",
        "nonce": "0xf",
        "chainId": "0x66eee"
      },
      "additionalContracts": [],
      "isFixedGasLimit": false
    },
    {
      "hash": "0x08f444e81a0808705967afc7a31ac5bafe166cd7f0f71a89554dbf0102cbc190",
      "transactionType": "CALL",
      "contractName": null,
      "contractAddress": "0x82b9e52b26a2954e113f94ff26647754d5a4247d",
      "function": "approve(address,uint256)",
      "arguments": [
        "0x39e08934FB9b095a62B2C77b249AA1ce81759402",
        "115792089237316195423570985008687907853269984665640564039457584007913129639935"
      ],
      "transaction": {
        "from": "0xa623046b3cb9619bace903a8c6d7a1c0a6723c53",
        "to": "0x82b9e52b26a2954e113f94ff26647754d5a4247d",
        "gas": "0x11fde",
        "value": "0x0",
        "input": "0x095ea7b300000000000000000000000039e08934fb9b095a62b2c77b249aa1ce81759402ffffffffffffffffffffffffffffffffffffffffffffffffffffffffffffffff",
        "nonce": "0x10",
        "chainId": "0x66eee"
      },
      "additionalContracts": [],
      "isFixedGasLimit": false
    },
    {
      "hash": "0x2fab5bf6936ee0411c56d3b295687cfd38afbf27695f98a7ca4c3531df261743",
      "transactionType": "CALL",
      "contractName": null,
      "contractAddress": "0x39e08934fb9b095a62b2c77b249aa1ce81759402",
      "function": "swapExactTokensForTokens(uint256,uint256,bool,(address,address,uint24,int24,address),bytes,address,uint256)",
      "arguments": [
        "10000",
        "0",
        "true",
        "(0x75faf114eafb1BDbe2F0316DF893fd58CE46AA4d, 0x82B9e52b26A2954E113F94Ff26647754d5a4247D, 8388608, 10, 0x92174F710F13191d3f1E4BbE976ba4B9Ca1bE080)",
        "0x",
        "0x0d2Dc4E9ebc1465E86Fdf6ab18377CB82eCf7548",
        "1752540997"
      ],
      "transaction": {
        "from": "0xa623046b3cb9619bace903a8c6d7a1c0a6723c53",
        "to": "0x39e08934fb9b095a62b2c77b249aa1ce81759402",
        "gas": "0x5a380",
        "value": "0x0",
        "input": "0xb1a0d57100000000000000000000000000000000000000000000000000000000000027100000000000000000000000000000000000000000000000000000000000000000000000000000000000000000000000000000000000000000000000000000000100000000000000000000000075faf114eafb1bdbe2f0316df893fd58ce46aa4d00000000000000000000000082b9e52b26a2954e113f94ff26647754d5a4247d0000000000000000000000000000000000000000000000000000000000800000000000000000000000000000000000000000000000000000000000000000000a00000000000000000000000092174f710f13191d3f1e4bbe976ba4b9ca1be08000000000000000000000000000000000000000000000000000000000000001600000000000000000000000000d2dc4e9ebc1465e86fdf6ab18377cb82ecf7548000000000000000000000000000000000000000000000000000000006875a7450000000000000000000000000000000000000000000000000000000000000000",
        "nonce": "0x11",
        "chainId": "0x66eee"
      },
      "additionalContracts": [],
      "isFixedGasLimit": false
    }
  ],
  "receipts": [
    {
      "status": "0x1",
      "cumulativeGasUsed": "0x297ee",
      "logs": [
        {
          "address": "0x75faf114eafb1bdbe2f0316df893fd58ce46aa4d",
          "topics": [
            "0x8c5be1e5ebec7d5bd14f71427d1e84f3dd0314c0f7b2291e5b200ac8c7c3b925",
            "0x000000000000000000000000a623046b3cb9619bace903a8c6d7a1c0a6723c53",
            "0x00000000000000000000000039e08934fb9b095a62b2c77b249aa1ce81759402"
          ],
          "data": "0xffffffffffffffffffffffffffffffffffffffffffffffffffffffffffffffff",
          "blockHash": "0x99bc47fd2b84f3b8dec80d596c405480dd83c4d59e399c61e4a6b64d3e63d839",
          "blockNumber": "0xa591cf5",
          "transactionHash": "0x9a5d29958b2dd68e00d448d9c2982d579c36d17387a15962eec64c4e3aefcfa7",
          "transactionIndex": "0x2",
          "logIndex": "0x4",
          "removed": false
        }
      ],
      "logsBloom": "0x00000000000000000000000000000000000000000000000000000000000000000000000000000000008000000000000000000000000000000020000000200010800000000000000000000000000000000000000000000000000000000000000000000040000000000000000000000000000000000000000000000000000000000000000000000000000000000000000000000000000000000000000000000000020000000000008000000000000000000000000000000000000000000000000000000000000000000000000000000000000000000000000000000000000000000010000000020000000000000000000000000000000000000100000000000004",
      "type": "0x2",
      "transactionHash": "0x9a5d29958b2dd68e00d448d9c2982d579c36d17387a15962eec64c4e3aefcfa7",
      "transactionIndex": "0x2",
      "blockHash": "0x99bc47fd2b84f3b8dec80d596c405480dd83c4d59e399c61e4a6b64d3e63d839",
      "blockNumber": "0xa591cf5",
      "gasUsed": "0xd9e9",
      "effectiveGasPrice": "0x5f5e100",
      "from": "0xa623046b3cb9619bace903a8c6d7a1c0a6723c53",
      "to": "0x75faf114eafb1bdbe2f0316df893fd58ce46aa4d",
      "contractAddress": null,
      "gasUsedForL1": "0x0",
      "l1BlockNumber": "0x85c0f5",
      "timeboosted": false
    },
    {
      "status": "0x1",
      "cumulativeGasUsed": "0x1b1ea3",
      "logs": [
        {
          "address": "0x82b9e52b26a2954e113f94ff26647754d5a4247d",
          "topics": [
            "0x8c5be1e5ebec7d5bd14f71427d1e84f3dd0314c0f7b2291e5b200ac8c7c3b925",
            "0x000000000000000000000000a623046b3cb9619bace903a8c6d7a1c0a6723c53",
            "0x00000000000000000000000039e08934fb9b095a62b2c77b249aa1ce81759402"
          ],
          "data": "0xffffffffffffffffffffffffffffffffffffffffffffffffffffffffffffffff",
          "blockHash": "0x76a500aef05e2cb987d6b0f3c60d3a17a1482a122e69410ff4453b1922a22d81",
          "blockNumber": "0xa591cf9",
          "transactionHash": "0x08f444e81a0808705967afc7a31ac5bafe166cd7f0f71a89554dbf0102cbc190",
          "transactionIndex": "0x7",
          "logIndex": "0xf",
          "removed": false
        }
      ],
      "logsBloom": "0x00000000000000000000800000000000000000000000000000000000000020000000000000000000008000000000000000000000000000000020000000200010000000000000000000000000000000000000000000000000000000000000000000000040000000000000000000000000000000000000000000000000000000000000000000000000000000000000000000000000000000000000000000000000020000000000008000000000000000000000000000000000000000000000000000000000000000000000000000000000000000000000000000000000000000000030000000020000000000000000000000000000000000000000000000000000",
      "type": "0x2",
      "transactionHash": "0x08f444e81a0808705967afc7a31ac5bafe166cd7f0f71a89554dbf0102cbc190",
      "transactionIndex": "0x7",
      "blockHash": "0x76a500aef05e2cb987d6b0f3c60d3a17a1482a122e69410ff4453b1922a22d81",
      "blockNumber": "0xa591cf9",
      "gasUsed": "0xda4b",
      "effectiveGasPrice": "0x5f5e100",
      "from": "0xa623046b3cb9619bace903a8c6d7a1c0a6723c53",
      "to": "0x82b9e52b26a2954e113f94ff26647754d5a4247d",
      "contractAddress": null,
      "gasUsedForL1": "0x0",
      "l1BlockNumber": "0x85c0f5",
      "timeboosted": false
    },
    {
      "status": "0x1",
      "cumulativeGasUsed": "0x3db03",
      "logs": [
        {
          "address": "0xfb3e0c6f74eb1a21cc1da29aec80d2dfe6c9a317",
          "topics": [
            "0x40e9cecb9f5f1f1c5b9c97dec2917b7ee92e57ba5563708daca94dd84ad7112f",
            "0x072f464603b8181d24d9bef667fa49567745f58d6726eb152ed0f327df09aadf",
            "0x00000000000000000000000039e08934fb9b095a62b2c77b249aa1ce81759402"
          ],
          "data": "0xffffffffffffffffffffffffffffffffffffffffffffffffffffffffffffd8f000000000000000000000000000000000000000000000000000000000000047a100000000000000000000000000000000000000015a2c63002a65034057d3294600000000000000000000000000000000000000000000000000000000004234e50000000000000000000000000000000000000000000000000000000000001793000000000000000000000000000000000000000000000000000000000000012c",
          "blockHash": "0x42b0dc43e3713426656addf3e895c5266b65356cbddadf91bd8b10370c52ea52",
          "blockNumber": "0xa591cfe",
          "transactionHash": "0x2fab5bf6936ee0411c56d3b295687cfd38afbf27695f98a7ca4c3531df261743",
          "transactionIndex": "0x1",
          "logIndex": "0x0",
          "removed": false
        },
        {
          "address": "0x75faf114eafb1bdbe2f0316df893fd58ce46aa4d",
          "topics": [
            "0xddf252ad1be2c89b69c2b068fc378daa952ba7f163c4a11628f55a4df523b3ef",
            "0x000000000000000000000000a623046b3cb9619bace903a8c6d7a1c0a6723c53",
            "0x000000000000000000000000fb3e0c6f74eb1a21cc1da29aec80d2dfe6c9a317"
          ],
          "data": "0x0000000000000000000000000000000000000000000000000000000000002710",
          "blockHash": "0x42b0dc43e3713426656addf3e895c5266b65356cbddadf91bd8b10370c52ea52",
          "blockNumber": "0xa591cfe",
          "transactionHash": "0x2fab5bf6936ee0411c56d3b295687cfd38afbf27695f98a7ca4c3531df261743",
          "transactionIndex": "0x1",
          "logIndex": "0x1",
          "removed": false
        },
        {
          "address": "0x82b9e52b26a2954e113f94ff26647754d5a4247d",
          "topics": [
            "0xddf252ad1be2c89b69c2b068fc378daa952ba7f163c4a11628f55a4df523b3ef",
            "0x000000000000000000000000fb3e0c6f74eb1a21cc1da29aec80d2dfe6c9a317",
            "0x0000000000000000000000000d2dc4e9ebc1465e86fdf6ab18377cb82ecf7548"
          ],
          "data": "0x00000000000000000000000000000000000000000000000000000000000047a1",
          "blockHash": "0x42b0dc43e3713426656addf3e895c5266b65356cbddadf91bd8b10370c52ea52",
          "blockNumber": "0xa591cfe",
          "transactionHash": "0x2fab5bf6936ee0411c56d3b295687cfd38afbf27695f98a7ca4c3531df261743",
          "transactionIndex": "0x1",
          "logIndex": "0x2",
          "removed": false
        }
      ],
      "logsBloom": "0x00000040000000000000800000000008000000000020000000000000000020000000000000000000008000000020000000000000040000000020000000000050800000000000000000000008000000000000000000000020000000000000000000000040000400000000000000000000000400000000000000000010000000000000000000000000000000000000000000000000000000000000000000000000000000000000008000000020000000000000000000000000000000000000000000000002200000000000000000000000000000000000000000000000800000000020000000020000004000000002000000000000000000000100000000000004",
      "type": "0x2",
      "transactionHash": "0x2fab5bf6936ee0411c56d3b295687cfd38afbf27695f98a7ca4c3531df261743",
      "transactionIndex": "0x1",
      "blockHash": "0x42b0dc43e3713426656addf3e895c5266b65356cbddadf91bd8b10370c52ea52",
      "blockNumber": "0xa591cfe",
      "gasUsed": "0x3db03",
      "effectiveGasPrice": "0x5f5e100",
      "from": "0xa623046b3cb9619bace903a8c6d7a1c0a6723c53",
      "to": "0x39e08934fb9b095a62b2c77b249aa1ce81759402",
      "contractAddress": null,
      "gasUsedForL1": "0x0",
      "l1BlockNumber": "0x85c0f5",
      "timeboosted": false
    }
  ],
  "libraries": [],
  "pending": [],
  "returns": {},
  "timestamp": 1752537409,
  "chain": 421614,
  "commit": "c40aef2"
}