{
  "transactions": [
    {
      "hash": "0x37c71f0eb8881c359d7a914d70bb2de6766c4b07d131773e84c065ea38c24660",
      "transactionType": "CALL",
      "contractName": null,
      "contractAddress": "0x82b9e52b26a2954e113f94ff26647754d5a4247d",
      "function": "approve(address,uint256)",
      "arguments": [
        "0x000000000022D473030F116dDEE9F6B43aC78BA3",
        "115792089237316195423570985008687907853269984665640564039457584007913129639935"
      ],
      "transaction": {
        "from": "0xa623046b3cb9619bace903a8c6d7a1c0a6723c53",
        "to": "0x82b9e52b26a2954e113f94ff26647754d5a4247d",
        "gas": "0x11f8f",
        "value": "0x0",
        "input": "0x095ea7b3000000000000000000000000000000000022d473030f116ddee9f6b43ac78ba3ffffffffffffffffffffffffffffffffffffffffffffffffffffffffffffffff",
        "nonce": "0xa",
        "chainId": "0x66eee"
      },
      "additionalContracts": [],
      "isFixedGasLimit": false
    },
    {
      "hash": "0xea3a246624a0af3dee19eae2f37605ceaab63bede85b9f74154a2f13e5a7a466",
      "transactionType": "CALL",
      "contractName": null,
      "contractAddress": "0x000000000022d473030f116ddee9f6b43ac78ba3",
      "function": "approve(address,address,uint160,uint48)",
      "arguments": [
        "0x82B9e52b26A2954E113F94Ff26647754d5a4247D",
        "0xAc631556d3d4019C95769033B5E719dD77124BAc",
        "1461501637330902918203684832716283019655932542975",
        "281474976710655"
      ],
      "transaction": {
        "from": "0xa623046b3cb9619bace903a8c6d7a1c0a6723c53",
        "to": "0x000000000022d473030f116ddee9f6b43ac78ba3",
        "gas": "0xf4c9",
        "value": "0x0",
        "input": "0x87517c4500000000000000000000000082b9e52b26a2954e113f94ff26647754d5a4247d000000000000000000000000ac631556d3d4019c95769033b5e719dd77124bac000000000000000000000000ffffffffffffffffffffffffffffffffffffffff0000000000000000000000000000000000000000000000000000ffffffffffff",
        "nonce": "0xb",
        "chainId": "0x66eee"
      },
      "additionalContracts": [],
      "isFixedGasLimit": false
    },
    {
      "hash": "0x5f84331a49c008b59cd0ee155fc1f12b76d15f5475619017c47ede9577a6ffa5",
      "transactionType": "CALL",
      "contractName": null,
      "contractAddress": "0x75faf114eafb1bdbe2f0316df893fd58ce46aa4d",
      "function": "approve(address,uint256)",
      "arguments": [
        "0x000000000022D473030F116dDEE9F6B43aC78BA3",
        "115792089237316195423570985008687907853269984665640564039457584007913129639935"
      ],
      "transaction": {
        "from": "0xa623046b3cb9619bace903a8c6d7a1c0a6723c53",
        "to": "0x75faf114eafb1bdbe2f0316df893fd58ce46aa4d",
        "gas": "0x11f0f",
        "value": "0x0",
        "input": "0x095ea7b3000000000000000000000000000000000022d473030f116ddee9f6b43ac78ba3ffffffffffffffffffffffffffffffffffffffffffffffffffffffffffffffff",
        "nonce": "0xc",
        "chainId": "0x66eee"
      },
      "additionalContracts": [],
      "isFixedGasLimit": false
    },
    {
      "hash": "0x0bd0e6669b20bdebb8f20f2c5998c794c8c3c0474309eee379ce9e9852b908dd",
      "transactionType": "CALL",
      "contractName": null,
      "contractAddress": "0x000000000022d473030f116ddee9f6b43ac78ba3",
      "function": "approve(address,address,uint160,uint48)",
      "arguments": [
        "0x75faf114eafb1BDbe2F0316DF893fd58CE46AA4d",
        "0xAc631556d3d4019C95769033B5E719dD77124BAc",
        "1461501637330902918203684832716283019655932542975",
        "281474976710655"
      ],
      "transaction": {
        "from": "0xa623046b3cb9619bace903a8c6d7a1c0a6723c53",
        "to": "0x000000000022d473030f116ddee9f6b43ac78ba3",
        "gas": "0xf4c9",
        "value": "0x0",
        "input": "0x87517c4500000000000000000000000075faf114eafb1bdbe2f0316df893fd58ce46aa4d000000000000000000000000ac631556d3d4019c95769033b5e719dd77124bac000000000000000000000000ffffffffffffffffffffffffffffffffffffffff0000000000000000000000000000000000000000000000000000ffffffffffff",
        "nonce": "0xd",
        "chainId": "0x66eee"
      },
      "additionalContracts": [],
      "isFixedGasLimit": false
    },
    {
      "hash": "0xd20747b245e80513895ea59dccd3b6d993b19af98b8404661676abb2f6758db3",
      "transactionType": "CALL",
      "contractName": null,
      "contractAddress": "0xac631556d3d4019c95769033b5e719dd77124bac",
      "function": "multicall(bytes[])",
      "arguments": [
        "[0xf702040500000000000000000000000075faf114eafb1bdbe2f0316df893fd58ce46aa4d00000000000000000000000082b9e52b26a2954e113f94ff26647754d5a4247d0000000000000000000000000000000000000000000000000000000000800000000000000000000000000000000000000000000000000000000000000000000a00000000000000000000000092174f710f13191d3f1e4bbe976ba4b9ca1be08000000000000000000000000000000000000000015b415b05a401c00c1e8c292a00000000000000000000000000000000000000000000000000000000000000e00000000000000000000000000000000000000000000000000000000000000000, 0xdd46508f0000000000000000000000000000000000000000000000000000000000000040000000000000000000000000000000000000000000000000000000006875a5890000000000000000000000000000000000000000000000000000000000000400000000000000000000000000000000000000000000000000000000000000004000000000000000000000000000000000000000000000000000000000000000800000000000000000000000000000000000000000000000000000000000000004020d14140000000000000000000000000000000000000000000000000000000000000000000000000000000000000000000000000000000000000000000000040000000000000000000000000000000000000000000000000000000000000080000000000000000000000000000000000000000000000000000000000000024000000000000000000000000000000000000000000000000000000000000002a0000000000000000000000000000000000000000000000000000000000000030000000000000000000000000000000000000000000000000000000000000001a000000000000000000000000075faf114eafb1bdbe2f0316df893fd58ce46aa4d00000000000000000000000082b9e52b26a2954e113f94ff26647754d5a4247d0000000000000000000000000000000000000000000000000000000000800000000000000000000000000000000000000000000000000000000000000000000a00000000000000000000000092174f710f13191d3f1e4bbe976ba4b9ca1be080fffffffffffffffffffffffffffffffffffffffffffffffffffffffffffffa88000000000000000000000000000000000000000000000000000000000000351600000000000000000000000000000000000000000000000000000000004234e500000000000000000000000000000000000000000000000000000000000f424100000000000000000000000000000000000000000000000000000000001c1381000000000000000000000000a623046b3cb9619bace903a8c6d7a1c0a6723c5300000000000000000000000000000000000000000000000000000000000001800000000000000000000000000000000000000000000000000000000000000000000000000000000000000000000000000000000000000000000000000000004000000000000000000000000075faf114eafb1bdbe2f0316df893fd58ce46aa4d00000000000000000000000082b9e52b26a2954e113f94ff26647754d5a4247d000000000000000000000000000000000000000000000000000000000000004000000000000000000000000075faf114eafb1bdbe2f0316df893fd58ce46aa4d000000000000000000000000a623046b3cb9619bace903a8c6d7a1c0a6723c53000000000000000000000000000000000000000000000000000000000000004000000000000000000000000082b9e52b26a2954e113f94ff26647754d5a4247d000000000000000000000000a623046b3cb9619bace903a8c6d7a1c0a6723c53]"
      ],
      "transaction": {
        "from": "0xa623046b3cb9619bace903a8c6d7a1c0a6723c53",
        "to": "0xac631556d3d4019c95769033b5e719dd77124bac",
        "gas": "0xac806",
        "value": "0x0",
        "input": "0xac9650d800000000000000000000000000000000000000000000000000000000000000200000000000000000000000000000000000000000000000000000000000000002000000000000000000000000000000000000000000000000000000000000004000000000000000000000000000000000000000000000000000000000000001800000000000000000000000000000000000000000000000000000000000000104f702040500000000000000000000000075faf114eafb1bdbe2f0316df893fd58ce46aa4d00000000000000000000000082b9e52b26a2954e113f94ff26647754d5a4247d0000000000000000000000000000000000000000000000000000000000800000000000000000000000000000000000000000000000000000000000000000000a00000000000000000000000092174f710f13191d3f1e4bbe976ba4b9ca1be08000000000000000000000000000000000000000015b415b05a401c00c1e8c292a00000000000000000000000000000000000000000000000000000000000000e00000000000000000000000000000000000000000000000000000000000000000000000000000000000000000000000000000000000000000000000000000000000000000000000000000000000000000000000000000000000000464dd46508f0000000000000000000000000000000000000000000000000000000000000040000000000000000000000000000000000000000000000000000000006875a5890000000000000000000000000000000000000000000000000000000000000400000000000000000000000000000000000000000000000000000000000000004000000000000000000000000000000000000000000000000000000000000000800000000000000000000000000000000000000000000000000000000000000004020d14140000000000000000000000000000000000000000000000000000000000000000000000000000000000000000000000000000000000000000000000040000000000000000000000000000000000000000000000000000000000000080000000000000000000000000000000000000000000000000000000000000024000000000000000000000000000000000000000000000000000000000000002a0000000000000000000000000000000000000000000000000000000000000030000000000000000000000000000000000000000000000000000000000000001a000000000000000000000000075faf114eafb1bdbe2f0316df893fd58ce46aa4d00000000000000000000000082b9e52b26a2954e113f94ff26647754d5a4247d0000000000000000000000000000000000000000000000000000000000800000000000000000000000000000000000000000000000000000000000000000000a00000000000000000000000092174f710f13191d3f1e4bbe976ba4b9ca1be080fffffffffffffffffffffffffffffffffffffffffffffffffffffffffffffa88000000000000000000000000000000000000000000000000000000000000351600000000000000000000000000000000000000000000000000000000004234e500000000000000000000000000000000000000000000000000000000000f424100000000000000000000000000000000000000000000000000000000001c1381000000000000000000000000a623046b3cb9619bace903a8c6d7a1c0a6723c5300000000000000000000000000000000000000000000000000000000000001800000000000000000000000000000000000000000000000000000000000000000000000000000000000000000000000000000000000000000000000000000004000000000000000000000000075faf114eafb1bdbe2f0316df893fd58ce46aa4d00000000000000000000000082b9e52b26a2954e113f94ff26647754d5a4247d000000000000000000000000000000000000000000000000000000000000004000000000000000000000000075faf114eafb1bdbe2f0316df893fd58ce46aa4d000000000000000000000000a623046b3cb9619bace903a8c6d7a1c0a6723c53000000000000000000000000000000000000000000000000000000000000004000000000000000000000000082b9e52b26a2954e113f94ff26647754d5a4247d000000000000000000000000a623046b3cb9619bace903a8c6d7a1c0a6723c5300000000000000000000000000000000000000000000000000000000",
        "nonce": "0xe",
        "chainId": "0x66eee"
      },
      "additionalContracts": [],
      "isFixedGasLimit": false
    }
  ],
  "receipts": [
    {
      "status": "0x1",
      "cumulativeGasUsed": "0x83f35",
      "logs": [
        {
          "address": "0x82b9e52b26a2954e113f94ff26647754d5a4247d",
          "topics": [
            "0x8c5be1e5ebec7d5bd14f71427d1e84f3dd0314c0f7b2291e5b200ac8c7c3b925",
            "0x000000000000000000000000a623046b3cb9619bace903a8c6d7a1c0a6723c53",
            "0x000000000000000000000000000000000022d473030f116ddee9f6b43ac78ba3"
          ],
          "data": "0xffffffffffffffffffffffffffffffffffffffffffffffffffffffffffffffff",
          "blockHash": "0xc1d8bbcaf5e4b956e0dff9d995c35592e64ff2104a397f840c9eaecc9263e536",
          "blockNumber": "0xa591644",
          "transactionHash": "0x37c71f0eb8881c359d7a914d70bb2de6766c4b07d131773e84c065ea38c24660",
          "transactionIndex": "0x4",
          "logIndex": "0x9",
          "removed": false
        }
      ],
      "logsBloom": "0x00000000000000000000800000000000000000000000000000000000000020000000000000000000008000000000000000000000800000000000000000200010000000000000000000004000000000000000000000000800000000000000000000000040000000000000000000000000000000000000000000000000000000000000000000000000000000000000000000000000000000000000000000000000020000000000000000000000000000000000000000000000000000000000000000000000000000000000000000000000000000000000000000000000000000000030000000000000000000000000000000000000000000000000000000000000",
      "type": "0x2",
      "transactionHash": "0x37c71f0eb8881c359d7a914d70bb2de6766c4b07d131773e84c065ea38c24660",
      "transactionIndex": "0x4",
      "blockHash": "0xc1d8bbcaf5e4b956e0dff9d995c35592e64ff2104a397f840c9eaecc9263e536",
      "blockNumber": "0xa591644",
      "gasUsed": "0xda0f",
      "effectiveGasPrice": "0x5f5e100",
      "from": "0xa623046b3cb9619bace903a8c6d7a1c0a6723c53",
      "to": "0x82b9e52b26a2954e113f94ff26647754d5a4247d",
      "contractAddress": null,
      "gasUsedForL1": "0x0",
      "l1BlockNumber": "0x85c0cf",
      "timeboosted": false
    },
    {
      "status": "0x1",
      "cumulativeGasUsed": "0x642bf",
      "logs": [
        {
          "address": "0x000000000022d473030f116ddee9f6b43ac78ba3",
          "topics": [
            "0xda9fa7c1b00402c17d0161b249b1ab8bbec047c5a52207b9c112deffd817036b",
            "0x000000000000000000000000a623046b3cb9619bace903a8c6d7a1c0a6723c53",
            "0x00000000000000000000000082b9e52b26a2954e113f94ff26647754d5a4247d",
            "0x000000000000000000000000ac631556d3d4019c95769033b5e719dd77124bac"
          ],
          "data": "0x000000000000000000000000ffffffffffffffffffffffffffffffffffffffff0000000000000000000000000000000000000000000000000000ffffffffffff",
          "blockHash": "0xae089e586d48718a4e2ebb2aa97bd2d06ea45c0e66dd4e5e89f2e9019e183a5c",
          "blockNumber": "0xa591648",
          "transactionHash": "0xea3a246624a0af3dee19eae2f37605ceaab63bede85b9f74154a2f13e5a7a466",
          "transactionIndex": "0x4",
          "logIndex": "0xa",
          "removed": false
        }
      ],
      "logsBloom": "0x00010000000000000000000000000000000000000000000000000000000000000000000000000000108000000000000000000000000000000000000000080010000000000020000000000004000000000000000000000000000000000000000000000040000000000000000000000000000000000000000000000000000000000020000000000000000000200000000000000000000000000000000000000000000000000000000000000000000000000000000000000000000000080000000000000000000000000000010000000000000000000000000040000000000000000000000000000000000000000000000000000000000000001000000000000400",
      "type": "0x2",
      "transactionHash": "0xea3a246624a0af3dee19eae2f37605ceaab63bede85b9f74154a2f13e5a7a466",
      "transactionIndex": "0x4",
      "blockHash": "0xae089e586d48718a4e2ebb2aa97bd2d06ea45c0e66dd4e5e89f2e9019e183a5c",
      "blockNumber": "0xa591648",
      "gasUsed": "0xbaca",
      "effectiveGasPrice": "0x5f5e100",
      "from": "0xa623046b3cb9619bace903a8c6d7a1c0a6723c53",
      "to": "0x000000000022d473030f116ddee9f6b43ac78ba3",
      "contractAddress": null,
      "gasUsedForL1": "0x0",
      "l1BlockNumber": "0x85c0cf",
      "timeboosted": false
    },
    {
      "status": "0x1",
      "cumulativeGasUsed": "0xd9ad",
      "logs": [
        {
          "address": "0x75faf114eafb1bdbe2f0316df893fd58ce46aa4d",
          "topics": [
            "0x8c5be1e5ebec7d5bd14f71427d1e84f3dd0314c0f7b2291e5b200ac8c7c3b925",
            "0x000000000000000000000000a623046b3cb9619bace903a8c6d7a1c0a6723c53",
            "0x000000000000000000000000000000000022d473030f116ddee9f6b43ac78ba3"
          ],
          "data": "0xffffffffffffffffffffffffffffffffffffffffffffffffffffffffffffffff",
          "blockHash": "0xec3a2b5b89dc7af7da33f0c5314d7d04e307a41dd33599c7e1abfa4cd940e8eb",
          "blockNumber": "0xa59164d",
          "transactionHash": "0x5f84331a49c008b59cd0ee155fc1f12b76d15f5475619017c47ede9577a6ffa5",
          "transactionIndex": "0x1",
          "logIndex": "0x0",
          "removed": false
        }
      ],
      "logsBloom": "0x00000000000000000000000000000000000000000000000000000000000000000000000000000000008000000000000000000000800000000000000000200010800000000000000000004000000000000000000000000800000000000000000000000040000000000000000000000000000000000000000000000000000000000000000000000000000000000000000000000000000000000000000000000000020000000000000000000000000000000000000000000000000000000000000000000000000000000000000000000000000000000000000000000000000000000010000000000000000000000000000000000000000000000100000000000004",
      "type": "0x2",
      "transactionHash": "0x5f84331a49c008b59cd0ee155fc1f12b76d15f5475619017c47ede9577a6ffa5",
      "transactionIndex": "0x1",
      "blockHash": "0xec3a2b5b89dc7af7da33f0c5314d7d04e307a41dd33599c7e1abfa4cd940e8eb",
      "blockNumber": "0xa59164d",
      "gasUsed": "0xd9ad",
      "effectiveGasPrice": "0x5f5e100",
      "from": "0xa623046b3cb9619bace903a8c6d7a1c0a6723c53",
      "to": "0x75faf114eafb1bdbe2f0316df893fd58ce46aa4d",
      "contractAddress": null,
      "gasUsedForL1": "0x0",
      "l1BlockNumber": "0x85c0cf",
      "timeboosted": false
    },
    {
      "status": "0x1",
      "cumulativeGasUsed": "0x461f2",
      "logs": [
        {
          "address": "0x000000000022d473030f116ddee9f6b43ac78ba3",
          "topics": [
            "0xda9fa7c1b00402c17d0161b249b1ab8bbec047c5a52207b9c112deffd817036b",
            "0x000000000000000000000000a623046b3cb9619bace903a8c6d7a1c0a6723c53",
            "0x00000000000000000000000075faf114eafb1bdbe2f0316df893fd58ce46aa4d",
            "0x000000000000000000000000ac631556d3d4019c95769033b5e719dd77124bac"
          ],
          "data": "0x000000000000000000000000ffffffffffffffffffffffffffffffffffffffff0000000000000000000000000000000000000000000000000000ffffffffffff",
          "blockHash": "0xa6caa9e3f0c4db36fe629568e25368e160d412d25c72078ea407a3c153949b73",
          "blockNumber": "0xa591650",
          "transactionHash": "0x0bd0e6669b20bdebb8f20f2c5998c794c8c3c0474309eee379ce9e9852b908dd",
          "transactionIndex": "0x3",
          "logIndex": "0x7",
          "removed": false
        }
      ],
      "logsBloom": "0x00010000000000000000000000000000000000000000000000000000000000000000000000000000108000000000000000008000000000000000000000080010000000000020000000000000000000000000000000000000000000000000000000000040000000000000000000000000020000000000002000000000000000000020000000000000000000000000000000000000000000000000000000000000000000000000000000000000000000000000000000000000000000080000000000000000000000000000010000000000000000000000000040000000000000000000000000000000000000000000000000000000000000000000000000000400",
      "type": "0x2",
      "transactionHash": "0x0bd0e6669b20bdebb8f20f2c5998c794c8c3c0474309eee379ce9e9852b908dd",
      "transactionIndex": "0x3",
      "blockHash": "0xa6caa9e3f0c4db36fe629568e25368e160d412d25c72078ea407a3c153949b73",
      "blockNumber": "0xa591650",
      "gasUsed": "0xbaca",
      "effectiveGasPrice": "0x5f5e100",
      "from": "0xa623046b3cb9619bace903a8c6d7a1c0a6723c53",
      "to": "0x000000000022d473030f116ddee9f6b43ac78ba3",
      "contractAddress": null,
      "gasUsedForL1": "0x0",
      "l1BlockNumber": "0x85c0d1",
      "timeboosted": false
    },
    {
      "status": "0x1",
      "cumulativeGasUsed": "0xe878f",
      "logs": [
        {
          "address": "0xfb3e0c6f74eb1a21cc1da29aec80d2dfe6c9a317",
          "topics": [
            "0xdd466e674ea557f56295e2d0218a125ea4b4f0f6f3307b95f85e6110838d6438",
            "0x072f464603b8181d24d9bef667fa49567745f58d6726eb152ed0f327df09aadf",
            "0x00000000000000000000000075faf114eafb1bdbe2f0316df893fd58ce46aa4d",
            "0x00000000000000000000000082b9e52b26a2954e113f94ff26647754d5a4247d"
          ],
          "data": "0x0000000000000000000000000000000000000000000000000000000000800000000000000000000000000000000000000000000000000000000000000000000a00000000000000000000000092174f710f13191d3f1e4bbe976ba4b9ca1be08000000000000000000000000000000000000000015b415b05a401c00c1e8c292a00000000000000000000000000000000000000000000000000000000000017d1",
          "blockHash": "0x9558e44f8e9caa35972d2c8af81210ea6280eed31ca270922ace8114f91623a9",
          "blockNumber": "0xa591655",
          "transactionHash": "0xd20747b245e80513895ea59dccd3b6d993b19af98b8404661676abb2f6758db3",
          "transactionIndex": "0x4",
          "logIndex": "0xa",
          "removed": false
        },
        {
          "address": "0xac631556d3d4019c95769033b5e719dd77124bac",
          "topics": [
            "0xddf252ad1be2c89b69c2b068fc378daa952ba7f163c4a11628f55a4df523b3ef",
            "0x0000000000000000000000000000000000000000000000000000000000000000",
            "0x000000000000000000000000a623046b3cb9619bace903a8c6d7a1c0a6723c53",
            "0x000000000000000000000000000000000000000000000000000000000000002f"
          ],
          "data": "0x",
          "blockHash": "0x9558e44f8e9caa35972d2c8af81210ea6280eed31ca270922ace8114f91623a9",
          "blockNumber": "0xa591655",
          "transactionHash": "0xd20747b245e80513895ea59dccd3b6d993b19af98b8404661676abb2f6758db3",
          "transactionIndex": "0x4",
          "logIndex": "0xb",
          "removed": false
        },
        {
          "address": "0xfb3e0c6f74eb1a21cc1da29aec80d2dfe6c9a317",
          "topics": [
            "0xf208f4912782fd25c7f114ca3723a2d5dd6f3bcc3ac8db5af63baa85f711d5ec",
            "0x072f464603b8181d24d9bef667fa49567745f58d6726eb152ed0f327df09aadf",
            "0x000000000000000000000000ac631556d3d4019c95769033b5e719dd77124bac"
          ],
          "data": "0xfffffffffffffffffffffffffffffffffffffffffffffffffffffffffffffa88000000000000000000000000000000000000000000000000000000000000351600000000000000000000000000000000000000000000000000000000004234e5000000000000000000000000000000000000000000000000000000000000002f",
          "blockHash": "0x9558e44f8e9caa35972d2c8af81210ea6280eed31ca270922ace8114f91623a9",
          "blockNumber": "0xa591655",
          "transactionHash": "0xd20747b245e80513895ea59dccd3b6d993b19af98b8404661676abb2f6758db3",
          "transactionIndex": "0x4",
          "logIndex": "0xc",
          "removed": false
        },
        {
          "address": "0x75faf114eafb1bdbe2f0316df893fd58ce46aa4d",
          "topics": [
            "0xddf252ad1be2c89b69c2b068fc378daa952ba7f163c4a11628f55a4df523b3ef",
            "0x000000000000000000000000a623046b3cb9619bace903a8c6d7a1c0a6723c53",
            "0x000000000000000000000000fb3e0c6f74eb1a21cc1da29aec80d2dfe6c9a317"
          ],
          "data": "0x00000000000000000000000000000000000000000000000000000000000f3fb5",
          "blockHash": "0x9558e44f8e9caa35972d2c8af81210ea6280eed31ca270922ace8114f91623a9",
          "blockNumber": "0xa591655",
          "transactionHash": "0xd20747b245e80513895ea59dccd3b6d993b19af98b8404661676abb2f6758db3",
          "transactionIndex": "0x4",
          "logIndex": "0xd",
          "removed": false
        },
        {
          "address": "0x82b9e52b26a2954e113f94ff26647754d5a4247d",
          "topics": [
            "0xddf252ad1be2c89b69c2b068fc378daa952ba7f163c4a11628f55a4df523b3ef",
            "0x000000000000000000000000a623046b3cb9619bace903a8c6d7a1c0a6723c53",
            "0x000000000000000000000000fb3e0c6f74eb1a21cc1da29aec80d2dfe6c9a317"
          ],
          "data": "0x00000000000000000000000000000000000000000000000000000000001c1380",
          "blockHash": "0x9558e44f8e9caa35972d2c8af81210ea6280eed31ca270922ace8114f91623a9",
          "blockNumber": "0xa591655",
          "transactionHash": "0xd20747b245e80513895ea59dccd3b6d993b19af98b8404661676abb2f6758db3",
          "transactionIndex": "0x4",
          "logIndex": "0xe",
          "removed": false
        }
      ],
      "logsBloom": "0x0000004000000000000080000000000800008000002010000000000000002000000000000000000010800000002000000000800000000000000000000000005080000000002000000000000c000000000000000000000000000000000000000000000040020400000000000000000800020000000000002000000010000000000000000001000008000000200000000000000001000000000000000000200000000004200000000000000000000000000000000000000000000000000000000000000002200000000000010000000000000000000000000000000000000020000020000000000000400000000002000004000000000004001100000000080004",
      "type": "0x2",
      "transactionHash": "0xd20747b245e80513895ea59dccd3b6d993b19af98b8404661676abb2f6758db3",
      "transactionIndex": "0x4",
      "blockHash": "0x9558e44f8e9caa35972d2c8af81210ea6280eed31ca270922ace8114f91623a9",
      "blockNumber": "0xa591655",
      "gasUsed": "0x7ce36",
      "effectiveGasPrice": "0x5f5e100",
      "from": "0xa623046b3cb9619bace903a8c6d7a1c0a6723c53",
      "to": "0xac631556d3d4019c95769033b5e719dd77124bac",
      "contractAddress": null,
      "gasUsedForL1": "0x0",
      "l1BlockNumber": "0x85c0d1",
      "timeboosted": false
    }
  ],
  "libraries": [],
  "pending": [],
  "returns": {},
  "timestamp": 1752536971,
  "chain": 421614,
  "commit": "c40aef2"
}