{
  "transactions": [
    {
      "hash": "0xa8428cfc247d0c3a2e34e4e3bc56255294c16a4a29c4d0c72bdee5ff95392382",
      "transactionType": "CALL",
      "contractName": null,
      "contractAddress": "0x82b9e52b26a2954e113f94ff26647754d5a4247d",
      "function": "approve(address,uint256)",
      "arguments": [
        "0x000000000022D473030F116dDEE9F6B43aC78BA3",
        "115792089237316195423570985008687907853269984665640564039457584007913129639935"
      ],
      "transaction": {
        "from": "0xa623046b3cb9619bace903a8c6d7a1c0a6723c53",
        "to": "0x82b9e52b26a2954e113f94ff26647754d5a4247d",
        "gas": "0xc682",
        "value": "0x0",
        "input": "0x095ea7b3000000000000000000000000000000000022d473030f116ddee9f6b43ac78ba3ffffffffffffffffffffffffffffffffffffffffffffffffffffffffffffffff",
        "nonce": "0x13",
        "chainId": "0x66eee"
      },
      "additionalContracts": [],
      "isFixedGasLimit": false
    },
    {
      "hash": "0x4efecf9c215f042827d03131ed5c6899f16ea9387adbd8d0d46ef1beb46c9b96",
      "transactionType": "CALL",
      "contractName": null,
      "contractAddress": "0x000000000022d473030f116ddee9f6b43ac78ba3",
      "function": "approve(address,address,uint160,uint48)",
      "arguments": [
        "0x82B9e52b26A2954E113F94Ff26647754d5a4247D",
        "0xAc631556d3d4019C95769033B5E719dD77124BAc",
        "1461501637330902918203684832716283019655932542975",
        "281474976710655"
      ],
      "transaction": {
        "from": "0xa623046b3cb9619bace903a8c6d7a1c0a6723c53",
        "to": "0x000000000022d473030f116ddee9f6b43ac78ba3",
        "gas": "0x8f87",
        "value": "0x0",
        "input": "0x87517c4500000000000000000000000082b9e52b26a2954e113f94ff26647754d5a4247d000000000000000000000000ac631556d3d4019c95769033b5e719dd77124bac000000000000000000000000ffffffffffffffffffffffffffffffffffffffff0000000000000000000000000000000000000000000000000000ffffffffffff",
        "nonce": "0x14",
        "chainId": "0x66eee"
      },
      "additionalContracts": [],
      "isFixedGasLimit": false
    },
    {
      "hash": "0x3aa6456882f199b5c07fb645203d9871198c0f8f8710f227639d6240ea3f3c04",
      "transactionType": "CALL",
      "contractName": null,
      "contractAddress": "0x75faf114eafb1bdbe2f0316df893fd58ce46aa4d",
      "function": "approve(address,uint256)",
      "arguments": [
        "0x000000000022D473030F116dDEE9F6B43aC78BA3",
        "115792089237316195423570985008687907853269984665640564039457584007913129639935"
      ],
      "transaction": {
        "from": "0xa623046b3cb9619bace903a8c6d7a1c0a6723c53",
        "to": "0x75faf114eafb1bdbe2f0316df893fd58ce46aa4d",
        "gas": "0xc601",
        "value": "0x0",
        "input": "0x095ea7b3000000000000000000000000000000000022d473030f116ddee9f6b43ac78ba3ffffffffffffffffffffffffffffffffffffffffffffffffffffffffffffffff",
        "nonce": "0x15",
        "chainId": "0x66eee"
      },
      "additionalContracts": [],
      "isFixedGasLimit": false
    },
    {
      "hash": "0x07dab1949ffdabce18eec51582f6c107e9ef90a4606920a0f9e19363fde95945",
      "transactionType": "CALL",
      "contractName": null,
      "contractAddress": "0x000000000022d473030f116ddee9f6b43ac78ba3",
      "function": "approve(address,address,uint160,uint48)",
      "arguments": [
        "0x75faf114eafb1BDbe2F0316DF893fd58CE46AA4d",
        "0xAc631556d3d4019C95769033B5E719dD77124BAc",
        "1461501637330902918203684832716283019655932542975",
        "281474976710655"
      ],
      "transaction": {
        "from": "0xa623046b3cb9619bace903a8c6d7a1c0a6723c53",
        "to": "0x000000000022d473030f116ddee9f6b43ac78ba3",
        "gas": "0x8f87",
        "value": "0x0",
        "input": "0x87517c4500000000000000000000000075faf114eafb1bdbe2f0316df893fd58ce46aa4d000000000000000000000000ac631556d3d4019c95769033b5e719dd77124bac000000000000000000000000ffffffffffffffffffffffffffffffffffffffff0000000000000000000000000000000000000000000000000000ffffffffffff",
        "nonce": "0x16",
        "chainId": "0x66eee"
      },
      "additionalContracts": [],
      "isFixedGasLimit": false
    },
    {
      "hash": "0x8565dc33623a29b3dcb20e225b68ac654e0e8de28a924f50958397c4006f0c5b",
      "transactionType": "CALL",
      "contractName": null,
      "contractAddress": "0xac631556d3d4019c95769033b5e719dd77124bac",
      "function": "multicall(bytes[])",
      "arguments": [
        "[0xf702040500000000000000000000000075faf114eafb1bdbe2f0316df893fd58ce46aa4d00000000000000000000000082b9e52b26a2954e113f94ff26647754d5a4247d0000000000000000000000000000000000000000000000000000000000800000000000000000000000000000000000000000000000000000000000000000000a000000000000000000000000c588c10682461bacfb24d14f75d1a60f0e9e608000000000000000000000000000000000000000045437850f5162d60774ad77d200000000000000000000000000000000000000000000000000000000000000e00000000000000000000000000000000000000000000000000000000000000000, 0xdd46508f0000000000000000000000000000000000000000000000000000000000000040000000000000000000000000000000000000000000000000000000006875b4520000000000000000000000000000000000000000000000000000000000000400000000000000000000000000000000000000000000000000000000000000004000000000000000000000000000000000000000000000000000000000000000800000000000000000000000000000000000000000000000000000000000000004020d14140000000000000000000000000000000000000000000000000000000000000000000000000000000000000000000000000000000000000000000000040000000000000000000000000000000000000000000000000000000000000080000000000000000000000000000000000000000000000000000000000000024000000000000000000000000000000000000000000000000000000000000002a0000000000000000000000000000000000000000000000000000000000000030000000000000000000000000000000000000000000000000000000000000001a000000000000000000000000075faf114eafb1bdbe2f0316df893fd58ce46aa4d00000000000000000000000082b9e52b26a2954e113f94ff26647754d5a4247d0000000000000000000000000000000000000000000000000000000000800000000000000000000000000000000000000000000000000000000000000000000a000000000000000000000000c588c10682461bacfb24d14f75d1a60f0e9e608000000000000000000000000000000000000000000000000000000000000055280000000000000000000000000000000000000000000000000000000000008fc000000000000000000000000000000000000000000000000000000003386ec5f9000000000000000000000000000000000000000000000000000000003b9aca01000000000000000000000000000000000000000000000000000000045cfdb501000000000000000000000000a623046b3cb9619bace903a8c6d7a1c0a6723c5300000000000000000000000000000000000000000000000000000000000001800000000000000000000000000000000000000000000000000000000000000000000000000000000000000000000000000000000000000000000000000000004000000000000000000000000075faf114eafb1bdbe2f0316df893fd58ce46aa4d00000000000000000000000082b9e52b26a2954e113f94ff26647754d5a4247d000000000000000000000000000000000000000000000000000000000000004000000000000000000000000075faf114eafb1bdbe2f0316df893fd58ce46aa4d000000000000000000000000a623046b3cb9619bace903a8c6d7a1c0a6723c53000000000000000000000000000000000000000000000000000000000000004000000000000000000000000082b9e52b26a2954e113f94ff26647754d5a4247d000000000000000000000000a623046b3cb9619bace903a8c6d7a1c0a6723c53]"
      ],
      "transaction": {
        "from": "0xa623046b3cb9619bace903a8c6d7a1c0a6723c53",
        "to": "0xac631556d3d4019c95769033b5e719dd77124bac",
        "gas": "0x9cfae",
        "value": "0x0",
        "input": "0xac9650d800000000000000000000000000000000000000000000000000000000000000200000000000000000000000000000000000000000000000000000000000000002000000000000000000000000000000000000000000000000000000000000004000000000000000000000000000000000000000000000000000000000000001800000000000000000000000000000000000000000000000000000000000000104f702040500000000000000000000000075faf114eafb1bdbe2f0316df893fd58ce46aa4d00000000000000000000000082b9e52b26a2954e113f94ff26647754d5a4247d0000000000000000000000000000000000000000000000000000000000800000000000000000000000000000000000000000000000000000000000000000000a000000000000000000000000c588c10682461bacfb24d14f75d1a60f0e9e608000000000000000000000000000000000000000045437850f5162d60774ad77d200000000000000000000000000000000000000000000000000000000000000e00000000000000000000000000000000000000000000000000000000000000000000000000000000000000000000000000000000000000000000000000000000000000000000000000000000000000000000000000000000000000464dd46508f0000000000000000000000000000000000000000000000000000000000000040000000000000000000000000000000000000000000000000000000006875b4520000000000000000000000000000000000000000000000000000000000000400000000000000000000000000000000000000000000000000000000000000004000000000000000000000000000000000000000000000000000000000000000800000000000000000000000000000000000000000000000000000000000000004020d14140000000000000000000000000000000000000000000000000000000000000000000000000000000000000000000000000000000000000000000000040000000000000000000000000000000000000000000000000000000000000080000000000000000000000000000000000000000000000000000000000000024000000000000000000000000000000000000000000000000000000000000002a0000000000000000000000000000000000000000000000000000000000000030000000000000000000000000000000000000000000000000000000000000001a000000000000000000000000075faf114eafb1bdbe2f0316df893fd58ce46aa4d00000000000000000000000082b9e52b26a2954e113f94ff26647754d5a4247d0000000000000000000000000000000000000000000000000000000000800000000000000000000000000000000000000000000000000000000000000000000a000000000000000000000000c588c10682461bacfb24d14f75d1a60f0e9e608000000000000000000000000000000000000000000000000000000000000055280000000000000000000000000000000000000000000000000000000000008fc000000000000000000000000000000000000000000000000000000003386ec5f9000000000000000000000000000000000000000000000000000000003b9aca01000000000000000000000000000000000000000000000000000000045cfdb501000000000000000000000000a623046b3cb9619bace903a8c6d7a1c0a6723c5300000000000000000000000000000000000000000000000000000000000001800000000000000000000000000000000000000000000000000000000000000000000000000000000000000000000000000000000000000000000000000000004000000000000000000000000075faf114eafb1bdbe2f0316df893fd58ce46aa4d00000000000000000000000082b9e52b26a2954e113f94ff26647754d5a4247d000000000000000000000000000000000000000000000000000000000000004000000000000000000000000075faf114eafb1bdbe2f0316df893fd58ce46aa4d000000000000000000000000a623046b3cb9619bace903a8c6d7a1c0a6723c53000000000000000000000000000000000000000000000000000000000000004000000000000000000000000082b9e52b26a2954e113f94ff26647754d5a4247d000000000000000000000000a623046b3cb9619bace903a8c6d7a1c0a6723c5300000000000000000000000000000000000000000000000000000000",
        "nonce": "0x17",
        "chainId": "0x66eee"
      },
      "additionalContracts": [],
      "isFixedGasLimit": false
    }
  ],
  "receipts": [
    {
      "status": "0x1",
      "cumulativeGasUsed": "0x9743",
      "logs": [
        {
          "address": "0x82b9e52b26a2954e113f94ff26647754d5a4247d",
          "topics": [
            "0x8c5be1e5ebec7d5bd14f71427d1e84f3dd0314c0f7b2291e5b200ac8c7c3b925",
            "0x000000000000000000000000a623046b3cb9619bace903a8c6d7a1c0a6723c53",
            "0x000000000000000000000000000000000022d473030f116ddee9f6b43ac78ba3"
          ],
          "data": "0xffffffffffffffffffffffffffffffffffffffffffffffffffffffffffffffff",
          "blockHash": "0x1a1a96ebcbc8cee21253cb3515f7adc25a9d76bbd65a2549532802c6f48aa255",
          "blockNumber": "0xa594ccc",
          "transactionHash": "0xa8428cfc247d0c3a2e34e4e3bc56255294c16a4a29c4d0c72bdee5ff95392382",
          "transactionIndex": "0x1",
          "logIndex": "0x0",
          "removed": false
        }
      ],
      "logsBloom": "0x00000000000000000000800000000000000000000000000000000000000020000000000000000000008000000000000000000000800000000000000000200010000000000000000000004000000000000000000000000800000000000000000000000040000000000000000000000000000000000000000000000000000000000000000000000000000000000000000000000000000000000000000000000000020000000000000000000000000000000000000000000000000000000000000000000000000000000000000000000000000000000000000000000000000000000030000000000000000000000000000000000000000000000000000000000000",
      "type": "0x2",
      "transactionHash": "0xa8428cfc247d0c3a2e34e4e3bc56255294c16a4a29c4d0c72bdee5ff95392382",
      "transactionIndex": "0x1",
      "blockHash": "0x1a1a96ebcbc8cee21253cb3515f7adc25a9d76bbd65a2549532802c6f48aa255",
      "blockNumber": "0xa594ccc",
      "gasUsed": "0x9743",
      "effectiveGasPrice": "0x5f5e100",
      "from": "0xa623046b3cb9619bace903a8c6d7a1c0a6723c53",
      "to": "0x82b9e52b26a2954e113f94ff26647754d5a4247d",
      "contractAddress": null,
      "gasUsedForL1": "0x0",
      "l1BlockNumber": "0x85c20a",
      "timeboosted": false
    },
    {
      "status": "0x1",
      "cumulativeGasUsed": "0x9efbb",
      "logs": [
        {
          "address": "0x000000000022d473030f116ddee9f6b43ac78ba3",
          "topics": [
            "0xda9fa7c1b00402c17d0161b249b1ab8bbec047c5a52207b9c112deffd817036b",
            "0x000000000000000000000000a623046b3cb9619bace903a8c6d7a1c0a6723c53",
            "0x00000000000000000000000082b9e52b26a2954e113f94ff26647754d5a4247d",
            "0x000000000000000000000000ac631556d3d4019c95769033b5e719dd77124bac"
          ],
          "data": "0x000000000000000000000000ffffffffffffffffffffffffffffffffffffffff0000000000000000000000000000000000000000000000000000ffffffffffff",
          "blockHash": "0x704cea4e98770fe1490c39a4e417ca4669982504a1b8613b4a3e6214804ee644",
          "blockNumber": "0xa594cd0",
          "transactionHash": "0x4efecf9c215f042827d03131ed5c6899f16ea9387adbd8d0d46ef1beb46c9b96",
          "transactionIndex": "0x5",
          "logIndex": "0x17",
          "removed": false
        }
      ],
      "logsBloom": "0x00010000000000000000000000000000000000000000000000000000000000000000000000000000108000000000000000000000000000000000000000080010000000000020000000000004000000000000000000000000000000000000000000000040000000000000000000000000000000000000000000000000000000000020000000000000000000200000000000000000000000000000000000000000000000000000000000000000000000000000000000000000000000080000000000000000000000000000010000000000000000000000000040000000000000000000000000000000000000000000000000000000000000001000000000000400",
      "type": "0x2",
      "transactionHash": "0x4efecf9c215f042827d03131ed5c6899f16ea9387adbd8d0d46ef1beb46c9b96",
      "transactionIndex": "0x5",
      "blockHash": "0x704cea4e98770fe1490c39a4e417ca4669982504a1b8613b4a3e6214804ee644",
      "blockNumber": "0xa594cd0",
      "gasUsed": "0x6d0e",
      "effectiveGasPrice": "0x5f5e100",
      "from": "0xa623046b3cb9619bace903a8c6d7a1c0a6723c53",
      "to": "0x000000000022d473030f116ddee9f6b43ac78ba3",
      "contractAddress": null,
      "gasUsedForL1": "0x0",
      "l1BlockNumber": "0x85c20a",
      "timeboosted": false
    },
    {
      "status": "0x1",
      "cumulativeGasUsed": "0x3cb17",
      "logs": [
        {
          "address": "0x75faf114eafb1bdbe2f0316df893fd58ce46aa4d",
          "topics": [
            "0x8c5be1e5ebec7d5bd14f71427d1e84f3dd0314c0f7b2291e5b200ac8c7c3b925",
            "0x000000000000000000000000a623046b3cb9619bace903a8c6d7a1c0a6723c53",
            "0x000000000000000000000000000000000022d473030f116ddee9f6b43ac78ba3"
          ],
          "data": "0xffffffffffffffffffffffffffffffffffffffffffffffffffffffffffffffff",
          "blockHash": "0x155c899dee171fdabd7f1130880fd484f2edaa1fdf70096dfa9b47921b320343",
          "blockNumber": "0xa594cd4",
          "transactionHash": "0x3aa6456882f199b5c07fb645203d9871198c0f8f8710f227639d6240ea3f3c04",
          "transactionIndex": "0x3",
          "logIndex": "0x5",
          "removed": false
        }
      ],
      "logsBloom": "0x00000000000000000000000000000000000000000000000000000000000000000000000000000000008000000000000000000000800000000000000000200010800000000000000000004000000000000000000000000800000000000000000000000040000000000000000000000000000000000000000000000000000000000000000000000000000000000000000000000000000000000000000000000000020000000000000000000000000000000000000000000000000000000000000000000000000000000000000000000000000000000000000000000000000000000010000000000000000000000000000000000000000000000100000000000004",
      "type": "0x2",
      "transactionHash": "0x3aa6456882f199b5c07fb645203d9871198c0f8f8710f227639d6240ea3f3c04",
      "transactionIndex": "0x3",
      "blockHash": "0x155c899dee171fdabd7f1130880fd484f2edaa1fdf70096dfa9b47921b320343",
      "blockNumber": "0xa594cd4",
      "gasUsed": "0x96e1",
      "effectiveGasPrice": "0x5f5e100",
      "from": "0xa623046b3cb9619bace903a8c6d7a1c0a6723c53",
      "to": "0x75faf114eafb1bdbe2f0316df893fd58ce46aa4d",
      "contractAddress": null,
      "gasUsedForL1": "0x0",
      "l1BlockNumber": "0x85c20a",
      "timeboosted": false
    },
    {
      "status": "0x1",
      "cumulativeGasUsed": "0x95825",
      "logs": [
        {
          "address": "0x000000000022d473030f116ddee9f6b43ac78ba3",
          "topics": [
            "0xda9fa7c1b00402c17d0161b249b1ab8bbec047c5a52207b9c112deffd817036b",
            "0x000000000000000000000000a623046b3cb9619bace903a8c6d7a1c0a6723c53",
            "0x00000000000000000000000075faf114eafb1bdbe2f0316df893fd58ce46aa4d",
            "0x000000000000000000000000ac631556d3d4019c95769033b5e719dd77124bac"
          ],
          "data": "0x000000000000000000000000ffffffffffffffffffffffffffffffffffffffff0000000000000000000000000000000000000000000000000000ffffffffffff",
          "blockHash": "0x24de180f63317d1b95517ed92bb2c12f9aaba83ba8524ef5ea05784c6848e28e",
          "blockNumber": "0xa594cd8",
          "transactionHash": "0x07dab1949ffdabce18eec51582f6c107e9ef90a4606920a0f9e19363fde95945",
          "transactionIndex": "0x4",
          "logIndex": "0x3",
          "removed": false
        }
      ],
      "logsBloom": "0x00010000000000000000000000000000000000000000000000000000000000000000000000000000108000000000000000008000000000000000000000080010000000000020000000000000000000000000000000000000000000000000000000000040000000000000000000000000020000000000002000000000000000000020000000000000000000000000000000000000000000000000000000000000000000000000000000000000000000000000000000000000000000080000000000000000000000000000010000000000000000000000000040000000000000000000000000000000000000000000000000000000000000000000000000000400",
      "type": "0x2",
      "transactionHash": "0x07dab1949ffdabce18eec51582f6c107e9ef90a4606920a0f9e19363fde95945",
      "transactionIndex": "0x4",
      "blockHash": "0x24de180f63317d1b95517ed92bb2c12f9aaba83ba8524ef5ea05784c6848e28e",
      "blockNumber": "0xa594cd8",
      "gasUsed": "0x6d0e",
      "effectiveGasPrice": "0x5f5e100",
      "from": "0xa623046b3cb9619bace903a8c6d7a1c0a6723c53",
      "to": "0x000000000022d473030f116ddee9f6b43ac78ba3",
      "contractAddress": null,
      "gasUsedForL1": "0x0",
      "l1BlockNumber": "0x85c20a",
      "timeboosted": false
    },
    {
      "status": "0x1",
      "cumulativeGasUsed": "0xcdb0e",
      "logs": [
        {
          "address": "0xfb3e0c6f74eb1a21cc1da29aec80d2dfe6c9a317",
          "topics": [
            "0xdd466e674ea557f56295e2d0218a125ea4b4f0f6f3307b95f85e6110838d6438",
            "0x3b128aadf200ea65c363e86b07c09170cedf250db24a8a193c806d66b05a7295",
            "0x00000000000000000000000075faf114eafb1bdbe2f0316df893fd58ce46aa4d",
            "0x00000000000000000000000082b9e52b26a2954e113f94ff26647754d5a4247d"
          ],
          "data": "0x0000000000000000000000000000000000000000000000000000000000800000000000000000000000000000000000000000000000000000000000000000000a000000000000000000000000c588c10682461bacfb24d14f75d1a60f0e9e608000000000000000000000000000000000000000045437850f5162d60774ad77d2000000000000000000000000000000000000000000000000000000000000727c",
          "blockHash": "0x852aee7bf223083573a17263c6b9a9d2ad5754f15da72cbe6f2830dc4f1bde5d",
          "blockNumber": "0xa594cdc",
          "transactionHash": "0x8565dc33623a29b3dcb20e225b68ac654e0e8de28a924f50958397c4006f0c5b",
          "transactionIndex": "0x6",
          "logIndex": "0xa",
          "removed": false
        },
        {
          "address": "0xac631556d3d4019c95769033b5e719dd77124bac",
          "topics": [
            "0xddf252ad1be2c89b69c2b068fc378daa952ba7f163c4a11628f55a4df523b3ef",
            "0x0000000000000000000000000000000000000000000000000000000000000000",
            "0x000000000000000000000000a623046b3cb9619bace903a8c6d7a1c0a6723c53",
            "0x0000000000000000000000000000000000000000000000000000000000000030"
          ],
          "data": "0x",
          "blockHash": "0x852aee7bf223083573a17263c6b9a9d2ad5754f15da72cbe6f2830dc4f1bde5d",
          "blockNumber": "0xa594cdc",
          "transactionHash": "0x8565dc33623a29b3dcb20e225b68ac654e0e8de28a924f50958397c4006f0c5b",
          "transactionIndex": "0x6",
          "logIndex": "0xb",
          "removed": false
        },
        {
          "address": "0xfb3e0c6f74eb1a21cc1da29aec80d2dfe6c9a317",
          "topics": [
            "0xf208f4912782fd25c7f114ca3723a2d5dd6f3bcc3ac8db5af63baa85f711d5ec",
            "0x3b128aadf200ea65c363e86b07c09170cedf250db24a8a193c806d66b05a7295",
            "0x000000000000000000000000ac631556d3d4019c95769033b5e719dd77124bac"
          ],
          "data": "0x00000000000000000000000000000000000000000000000000000000000055280000000000000000000000000000000000000000000000000000000000008fc000000000000000000000000000000000000000000000000000000003386ec5f90000000000000000000000000000000000000000000000000000000000000030",
          "blockHash": "0x852aee7bf223083573a17263c6b9a9d2ad5754f15da72cbe6f2830dc4f1bde5d",
          "blockNumber": "0xa594cdc",
          "transactionHash": "0x8565dc33623a29b3dcb20e225b68ac654e0e8de28a924f50958397c4006f0c5b",
          "transactionIndex": "0x6",
          "logIndex": "0xc",
          "removed": false
        },
        {
          "address": "0x75faf114eafb1bdbe2f0316df893fd58ce46aa4d",
          "topics": [
            "0xddf252ad1be2c89b69c2b068fc378daa952ba7f163c4a11628f55a4df523b3ef",
            "0x000000000000000000000000a623046b3cb9619bace903a8c6d7a1c0a6723c53",
            "0x000000000000000000000000fb3e0c6f74eb1a21cc1da29aec80d2dfe6c9a317"
          ],
          "data": "0x000000000000000000000000000000000000000000000000000000003b7fc15d",
          "blockHash": "0x852aee7bf223083573a17263c6b9a9d2ad5754f15da72cbe6f2830dc4f1bde5d",
          "blockNumber": "0xa594cdc",
          "transactionHash": "0x8565dc33623a29b3dcb20e225b68ac654e0e8de28a924f50958397c4006f0c5b",
          "transactionIndex": "0x6",
          "logIndex": "0xd",
          "removed": false
        },
        {
          "address": "0x82b9e52b26a2954e113f94ff26647754d5a4247d",
          "topics": [
            "0xddf252ad1be2c89b69c2b068fc378daa952ba7f163c4a11628f55a4df523b3ef",
            "0x000000000000000000000000a623046b3cb9619bace903a8c6d7a1c0a6723c53",
            "0x000000000000000000000000fb3e0c6f74eb1a21cc1da29aec80d2dfe6c9a317"
          ],
          "data": "0x000000000000000000000000000000000000000000000000000000045cfdb500",
          "blockHash": "0x852aee7bf223083573a17263c6b9a9d2ad5754f15da72cbe6f2830dc4f1bde5d",
          "blockNumber": "0xa594cdc",
          "transactionHash": "0x8565dc33623a29b3dcb20e225b68ac654e0e8de28a924f50958397c4006f0c5b",
          "transactionIndex": "0x6",
          "logIndex": "0xe",
          "removed": false
        }
      ],
      "logsBloom": "0x0200004000000000000081000000000800000000002010000000000000002000000000000000000010800000000000000000800000000000000000000400005080000000002000000000000c000000000000000000000000000000000000000000000040020400000000000000000800020000000000002000000010000000000000000001000008000000200000000000000001000000000000000000200000000004200000000800000000000000000000000002000000000000000000000000000002000000000000010000000000000000000000000000000000000020000020000000000000400000000000000004000000000000001100000000000004",
      "type": "0x2",
      "transactionHash": "0x8565dc33623a29b3dcb20e225b68ac654e0e8de28a924f50958397c4006f0c5b",
      "transactionIndex": "0x6",
      "blockHash": "0x852aee7bf223083573a17263c6b9a9d2ad5754f15da72cbe6f2830dc4f1bde5d",
      "blockNumber": "0xa594cdc",
      "gasUsed": "0x747a2",
      "effectiveGasPrice": "0x5f5e100",
      "from": "0xa623046b3cb9619bace903a8c6d7a1c0a6723c53",
      "to": "0xac631556d3d4019c95769033b5e719dd77124bac",
      "contractAddress": null,
      "gasUsedForL1": "0x0",
      "l1BlockNumber": "0x85c20a",
      "timeboosted": false
    }
  ],
  "libraries": [],
  "pending": [],
  "returns": {},
  "timestamp": 1752540754,
  "chain": 421614,
  "commit": "c4c1374"
}