{
  "transactions": [
    {
      "hash": "0xf453e33ea47a97e5d61d00d68eed4d03656994cbc4d47341784350cf13a59f30",
      "transactionType": "CALL",
      "contractName": null,
      "contractAddress": "0x82b9e52b26a2954e113f94ff26647754d5a4247d",
      "function": "approve(address,uint256)",
      "arguments": [
        "0x000000000022D473030F116dDEE9F6B43aC78BA3",
        "115792089237316195423570985008687907853269984665640564039457584007913129639935"
      ],
      "transaction": {
        "from": "0xa623046b3cb9619bace903a8c6d7a1c0a6723c53",
        "to": "0x82b9e52b26a2954e113f94ff26647754d5a4247d",
        "gas": "0xc682",
        "value": "0x0",
        "input": "0x095ea7b3000000000000000000000000000000000022d473030f116ddee9f6b43ac78ba3ffffffffffffffffffffffffffffffffffffffffffffffffffffffffffffffff",
        "nonce": "0x20",
        "chainId": "0x66eee"
      },
      "additionalContracts": [],
      "isFixedGasLimit": false
    },
    {
      "hash": "0xb1154c78a6fe6a29c66451bcd57ddb2d76e53e476a102072f1187703478ec144",
      "transactionType": "CALL",
      "contractName": null,
      "contractAddress": "0x000000000022d473030f116ddee9f6b43ac78ba3",
      "function": "approve(address,address,uint160,uint48)",
      "arguments": [
        "0x82B9e52b26A2954E113F94Ff26647754d5a4247D",
        "0xAc631556d3d4019C95769033B5E719dD77124BAc",
        "1461501637330902918203684832716283019655932542975",
        "281474976710655"
      ],
      "transaction": {
        "from": "0xa623046b3cb9619bace903a8c6d7a1c0a6723c53",
        "to": "0x000000000022d473030f116ddee9f6b43ac78ba3",
        "gas": "0x8f87",
        "value": "0x0",
        "input": "0x87517c4500000000000000000000000082b9e52b26a2954e113f94ff26647754d5a4247d000000000000000000000000ac631556d3d4019c95769033b5e719dd77124bac000000000000000000000000ffffffffffffffffffffffffffffffffffffffff0000000000000000000000000000000000000000000000000000ffffffffffff",
        "nonce": "0x21",
        "chainId": "0x66eee"
      },
      "additionalContracts": [],
      "isFixedGasLimit": false
    },
    {
      "hash": "0x60743620f0c3d53229b08c177c500f3a54233e756a32a624b06741d3b4ecce4b",
      "transactionType": "CALL",
      "contractName": null,
      "contractAddress": "0x75faf114eafb1bdbe2f0316df893fd58ce46aa4d",
      "function": "approve(address,uint256)",
      "arguments": [
        "0x000000000022D473030F116dDEE9F6B43aC78BA3",
        "115792089237316195423570985008687907853269984665640564039457584007913129639935"
      ],
      "transaction": {
        "from": "0xa623046b3cb9619bace903a8c6d7a1c0a6723c53",
        "to": "0x75faf114eafb1bdbe2f0316df893fd58ce46aa4d",
        "gas": "0xc601",
        "value": "0x0",
        "input": "0x095ea7b3000000000000000000000000000000000022d473030f116ddee9f6b43ac78ba3ffffffffffffffffffffffffffffffffffffffffffffffffffffffffffffffff",
        "nonce": "0x22",
        "chainId": "0x66eee"
      },
      "additionalContracts": [],
      "isFixedGasLimit": false
    },
    {
      "hash": "0xcf26b22272d41fc74a5d07eec918cd8ef55203feaf00933834cd84404cc1ac3e",
      "transactionType": "CALL",
      "contractName": null,
      "contractAddress": "0x000000000022d473030f116ddee9f6b43ac78ba3",
      "function": "approve(address,address,uint160,uint48)",
      "arguments": [
        "0x75faf114eafb1BDbe2F0316DF893fd58CE46AA4d",
        "0xAc631556d3d4019C95769033B5E719dD77124BAc",
        "1461501637330902918203684832716283019655932542975",
        "281474976710655"
      ],
      "transaction": {
        "from": "0xa623046b3cb9619bace903a8c6d7a1c0a6723c53",
        "to": "0x000000000022d473030f116ddee9f6b43ac78ba3",
        "gas": "0x8f87",
        "value": "0x0",
        "input": "0x87517c4500000000000000000000000075faf114eafb1bdbe2f0316df893fd58ce46aa4d000000000000000000000000ac631556d3d4019c95769033b5e719dd77124bac000000000000000000000000ffffffffffffffffffffffffffffffffffffffff0000000000000000000000000000000000000000000000000000ffffffffffff",
        "nonce": "0x23",
        "chainId": "0x66eee"
      },
      "additionalContracts": [],
      "isFixedGasLimit": false
    },
    {
      "hash": "0x5a30645451a70001f9ea376ddf88e75ff66ce60caae761e1d4d99e27889417e9",
      "transactionType": "CALL",
      "contractName": null,
      "contractAddress": "0xac631556d3d4019c95769033b5e719dd77124bac",
      "function": "multicall(bytes[])",
      "arguments": [
        "[0xf702040500000000000000000000000075faf114eafb1bdbe2f0316df893fd58ce46aa4d00000000000000000000000082b9e52b26a2954e113f94ff26647754d5a4247d00000000000000000000000000000000000000000000000000000000000001f4000000000000000000000000000000000000000000000000000000000000000a0000000000000000000000000000000000000000000000000000000000000000000000000000000000000000000000000000001f9f6e4990f2273685cb6ba3d000000000000000000000000000000000000000000000000000000000000000e00000000000000000000000000000000000000000000000000000000000000000, 0xdd46508f000000000000000000000000000000000000000000000000000000000000004000000000000000000000000000000000000000000000000000000000687afed70000000000000000000000000000000000000000000000000000000000000400000000000000000000000000000000000000000000000000000000000000004000000000000000000000000000000000000000000000000000000000000000800000000000000000000000000000000000000000000000000000000000000004020d14140000000000000000000000000000000000000000000000000000000000000000000000000000000000000000000000000000000000000000000000040000000000000000000000000000000000000000000000000000000000000080000000000000000000000000000000000000000000000000000000000000024000000000000000000000000000000000000000000000000000000000000002a0000000000000000000000000000000000000000000000000000000000000030000000000000000000000000000000000000000000000000000000000000001a000000000000000000000000075faf114eafb1bdbe2f0316df893fd58ce46aa4d00000000000000000000000082b9e52b26a2954e113f94ff26647754d5a4247d00000000000000000000000000000000000000000000000000000000000001f4000000000000000000000000000000000000000000000000000000000000000a0000000000000000000000000000000000000000000000000000000000000000000000000000000000000000000000000000000000000000000000000000f08c0000000000000000000000000000000000000000000000000000000000012b24000000000000000000000000000000000000000000000000000000000606eeed00000000000000000000000000000000000000000000000000000000000f4241000000000000000000000000000000000000000000000000000000003b9aca01000000000000000000000000a623046b3cb9619bace903a8c6d7a1c0a6723c5300000000000000000000000000000000000000000000000000000000000001800000000000000000000000000000000000000000000000000000000000000000000000000000000000000000000000000000000000000000000000000000004000000000000000000000000075faf114eafb1bdbe2f0316df893fd58ce46aa4d00000000000000000000000082b9e52b26a2954e113f94ff26647754d5a4247d000000000000000000000000000000000000000000000000000000000000004000000000000000000000000075faf114eafb1bdbe2f0316df893fd58ce46aa4d000000000000000000000000a623046b3cb9619bace903a8c6d7a1c0a6723c53000000000000000000000000000000000000000000000000000000000000004000000000000000000000000082b9e52b26a2954e113f94ff26647754d5a4247d000000000000000000000000a623046b3cb9619bace903a8c6d7a1c0a6723c53]"
      ],
      "transaction": {
        "from": "0xa623046b3cb9619bace903a8c6d7a1c0a6723c53",
        "to": "0xac631556d3d4019c95769033b5e719dd77124bac",
        "gas": "0x94cc3",
        "value": "0x0",
        "input": "0xac9650d800000000000000000000000000000000000000000000000000000000000000200000000000000000000000000000000000000000000000000000000000000002000000000000000000000000000000000000000000000000000000000000004000000000000000000000000000000000000000000000000000000000000001800000000000000000000000000000000000000000000000000000000000000104f702040500000000000000000000000075faf114eafb1bdbe2f0316df893fd58ce46aa4d00000000000000000000000082b9e52b26a2954e113f94ff26647754d5a4247d00000000000000000000000000000000000000000000000000000000000001f4000000000000000000000000000000000000000000000000000000000000000a0000000000000000000000000000000000000000000000000000000000000000000000000000000000000000000000000000001f9f6e4990f2273685cb6ba3d000000000000000000000000000000000000000000000000000000000000000e00000000000000000000000000000000000000000000000000000000000000000000000000000000000000000000000000000000000000000000000000000000000000000000000000000000000000000000000000000000000000464dd46508f000000000000000000000000000000000000000000000000000000000000004000000000000000000000000000000000000000000000000000000000687afed70000000000000000000000000000000000000000000000000000000000000400000000000000000000000000000000000000000000000000000000000000004000000000000000000000000000000000000000000000000000000000000000800000000000000000000000000000000000000000000000000000000000000004020d14140000000000000000000000000000000000000000000000000000000000000000000000000000000000000000000000000000000000000000000000040000000000000000000000000000000000000000000000000000000000000080000000000000000000000000000000000000000000000000000000000000024000000000000000000000000000000000000000000000000000000000000002a0000000000000000000000000000000000000000000000000000000000000030000000000000000000000000000000000000000000000000000000000000001a000000000000000000000000075faf114eafb1bdbe2f0316df893fd58ce46aa4d00000000000000000000000082b9e52b26a2954e113f94ff26647754d5a4247d00000000000000000000000000000000000000000000000000000000000001f4000000000000000000000000000000000000000000000000000000000000000a0000000000000000000000000000000000000000000000000000000000000000000000000000000000000000000000000000000000000000000000000000f08c0000000000000000000000000000000000000000000000000000000000012b24000000000000000000000000000000000000000000000000000000000606eeed00000000000000000000000000000000000000000000000000000000000f4241000000000000000000000000000000000000000000000000000000003b9aca01000000000000000000000000a623046b3cb9619bace903a8c6d7a1c0a6723c5300000000000000000000000000000000000000000000000000000000000001800000000000000000000000000000000000000000000000000000000000000000000000000000000000000000000000000000000000000000000000000000004000000000000000000000000075faf114eafb1bdbe2f0316df893fd58ce46aa4d00000000000000000000000082b9e52b26a2954e113f94ff26647754d5a4247d000000000000000000000000000000000000000000000000000000000000004000000000000000000000000075faf114eafb1bdbe2f0316df893fd58ce46aa4d000000000000000000000000a623046b3cb9619bace903a8c6d7a1c0a6723c53000000000000000000000000000000000000000000000000000000000000004000000000000000000000000082b9e52b26a2954e113f94ff26647754d5a4247d000000000000000000000000a623046b3cb9619bace903a8c6d7a1c0a6723c5300000000000000000000000000000000000000000000000000000000",
        "nonce": "0x24",
        "chainId": "0x66eee"
      },
      "additionalContracts": [],
      "isFixedGasLimit": false
    }
  ],
  "receipts": [
    {
      "status": "0x1",
      "cumulativeGasUsed": "0x412cd",
      "logs": [
        {
          "address": "0x82b9e52b26a2954e113f94ff26647754d5a4247d",
          "topics": [
            "0x8c5be1e5ebec7d5bd14f71427d1e84f3dd0314c0f7b2291e5b200ac8c7c3b925",
            "0x000000000000000000000000a623046b3cb9619bace903a8c6d7a1c0a6723c53",
            "0x000000000000000000000000000000000022d473030f116ddee9f6b43ac78ba3"
          ],
          "data": "0xffffffffffffffffffffffffffffffffffffffffffffffffffffffffffffffff",
          "blockHash": "0xb51eeccf129ba11d2d28fbe662ea4792027d39ff293c225aa0cd87b61702d7ac",
          "blockNumber": "0xa6e464d",
          "transactionHash": "0xf453e33ea47a97e5d61d00d68eed4d03656994cbc4d47341784350cf13a59f30",
          "transactionIndex": "0x3",
          "logIndex": "0x7",
          "removed": false
        }
      ],
      "logsBloom": "0x00000000000000000000800000000000000000000000000000000000000020000000000000000000008000000000000000000000800000000000000000200010000000000000000000004000000000000000000000000800000000000000000000000040000000000000000000000000000000000000000000000000000000000000000000000000000000000000000000000000000000000000000000000000020000000000000000000000000000000000000000000000000000000000000000000000000000000000000000000000000000000000000000000000000000000030000000000000000000000000000000000000000000000000000000000000",
      "type": "0x2",
      "transactionHash": "0xf453e33ea47a97e5d61d00d68eed4d03656994cbc4d47341784350cf13a59f30",
      "transactionIndex": "0x3",
      "blockHash": "0xb51eeccf129ba11d2d28fbe662ea4792027d39ff293c225aa0cd87b61702d7ac",
      "blockNumber": "0xa6e464d",
      "gasUsed": "0x9743",
      "effectiveGasPrice": "0x5f5e100",
      "from": "0xa623046b3cb9619bace903a8c6d7a1c0a6723c53",
      "to": "0x82b9e52b26a2954e113f94ff26647754d5a4247d",
      "contractAddress": null,
      "gasUsedForL1": "0x0",
      "l1BlockNumber": "0x863087",
      "timeboosted": false
    },
    {
      "status": "0x1",
      "cumulativeGasUsed": "0x1d55a",
      "logs": [
        {
          "address": "0x000000000022d473030f116ddee9f6b43ac78ba3",
          "topics": [
            "0xda9fa7c1b00402c17d0161b249b1ab8bbec047c5a52207b9c112deffd817036b",
            "0x000000000000000000000000a623046b3cb9619bace903a8c6d7a1c0a6723c53",
            "0x00000000000000000000000082b9e52b26a2954e113f94ff26647754d5a4247d",
            "0x000000000000000000000000ac631556d3d4019c95769033b5e719dd77124bac"
          ],
          "data": "0x000000000000000000000000ffffffffffffffffffffffffffffffffffffffff0000000000000000000000000000000000000000000000000000ffffffffffff",
          "blockHash": "0x0cca36f047c15e0a17908c46ed6eb89a7fe113c3a0a23b4bbde5a0fe295fd701",
          "blockNumber": "0xa6e4651",
          "transactionHash": "0xb1154c78a6fe6a29c66451bcd57ddb2d76e53e476a102072f1187703478ec144",
          "transactionIndex": "0x2",
          "logIndex": "0x3",
          "removed": false
        }
      ],
      "logsBloom": "0x00010000000000000000000000000000000000000000000000000000000000000000000000000000108000000000000000000000000000000000000000080010000000000020000000000004000000000000000000000000000000000000000000000040000000000000000000000000000000000000000000000000000000000020000000000000000000200000000000000000000000000000000000000000000000000000000000000000000000000000000000000000000000080000000000000000000000000000010000000000000000000000000040000000000000000000000000000000000000000000000000000000000000001000000000000400",
      "type": "0x2",
      "transactionHash": "0xb1154c78a6fe6a29c66451bcd57ddb2d76e53e476a102072f1187703478ec144",
      "transactionIndex": "0x2",
      "blockHash": "0x0cca36f047c15e0a17908c46ed6eb89a7fe113c3a0a23b4bbde5a0fe295fd701",
      "blockNumber": "0xa6e4651",
      "gasUsed": "0x6d0e",
      "effectiveGasPrice": "0x5f5e100",
      "from": "0xa623046b3cb9619bace903a8c6d7a1c0a6723c53",
      "to": "0x000000000022d473030f116ddee9f6b43ac78ba3",
      "contractAddress": null,
      "gasUsedForL1": "0x0",
      "l1BlockNumber": "0x863087",
      "timeboosted": false
    },
    {
      "status": "0x1",
      "cumulativeGasUsed": "0x5c290",
      "logs": [
        {
          "address": "0x75faf114eafb1bdbe2f0316df893fd58ce46aa4d",
          "topics": [
            "0x8c5be1e5ebec7d5bd14f71427d1e84f3dd0314c0f7b2291e5b200ac8c7c3b925",
            "0x000000000000000000000000a623046b3cb9619bace903a8c6d7a1c0a6723c53",
            "0x000000000000000000000000000000000022d473030f116ddee9f6b43ac78ba3"
          ],
          "data": "0xffffffffffffffffffffffffffffffffffffffffffffffffffffffffffffffff",
          "blockHash": "0x32b0f56b18cd8f01bd1357d318531c397010e40ec2e5e0d831b8598e628113ac",
          "blockNumber": "0xa6e4655",
          "transactionHash": "0x60743620f0c3d53229b08c177c500f3a54233e756a32a624b06741d3b4ecce4b",
          "transactionIndex": "0x4",
          "logIndex": "0xb",
          "removed": false
        }
      ],
      "logsBloom": "0x00000000000000000000000000000000000000000000000000000000000000000000000000000000008000000000000000000000800000000000000000200010800000000000000000004000000000000000000000000800000000000000000000000040000000000000000000000000000000000000000000000000000000000000000000000000000000000000000000000000000000000000000000000000020000000000000000000000000000000000000000000000000000000000000000000000000000000000000000000000000000000000000000000000000000000010000000000000000000000000000000000000000000000100000000000004",
      "type": "0x2",
      "transactionHash": "0x60743620f0c3d53229b08c177c500f3a54233e756a32a624b06741d3b4ecce4b",
      "transactionIndex": "0x4",
      "blockHash": "0x32b0f56b18cd8f01bd1357d318531c397010e40ec2e5e0d831b8598e628113ac",
      "blockNumber": "0xa6e4655",
      "gasUsed": "0x96e1",
      "effectiveGasPrice": "0x5f5e100",
      "from": "0xa623046b3cb9619bace903a8c6d7a1c0a6723c53",
      "to": "0x75faf114eafb1bdbe2f0316df893fd58ce46aa4d",
      "contractAddress": null,
      "gasUsedForL1": "0x0",
      "l1BlockNumber": "0x863087",
      "timeboosted": false
    },
    {
      "status": "0x1",
      "cumulativeGasUsed": "0x7ca41",
      "logs": [
        {
          "address": "0x000000000022d473030f116ddee9f6b43ac78ba3",
          "topics": [
            "0xda9fa7c1b00402c17d0161b249b1ab8bbec047c5a52207b9c112deffd817036b",
            "0x000000000000000000000000a623046b3cb9619bace903a8c6d7a1c0a6723c53",
            "0x00000000000000000000000075faf114eafb1bdbe2f0316df893fd58ce46aa4d",
            "0x000000000000000000000000ac631556d3d4019c95769033b5e719dd77124bac"
          ],
          "data": "0x000000000000000000000000ffffffffffffffffffffffffffffffffffffffff0000000000000000000000000000000000000000000000000000ffffffffffff",
          "blockHash": "0x07f08cb3bf9072904a266331e9d9784e73e342f4fc3c4d9b04429c0cc26f9e87",
          "blockNumber": "0xa6e4659",
          "transactionHash": "0xcf26b22272d41fc74a5d07eec918cd8ef55203feaf00933834cd84404cc1ac3e",
          "transactionIndex": "0x4",
          "logIndex": "0x10",
          "removed": false
        }
      ],
      "logsBloom": "0x00010000000000000000000000000000000000000000000000000000000000000000000000000000108000000000000000008000000000000000000000080010000000000020000000000000000000000000000000000000000000000000000000000040000000000000000000000000020000000000002000000000000000000020000000000000000000000000000000000000000000000000000000000000000000000000000000000000000000000000000000000000000000080000000000000000000000000000010000000000000000000000000040000000000000000000000000000000000000000000000000000000000000000000000000000400",
      "type": "0x2",
      "transactionHash": "0xcf26b22272d41fc74a5d07eec918cd8ef55203feaf00933834cd84404cc1ac3e",
      "transactionIndex": "0x4",
      "blockHash": "0x07f08cb3bf9072904a266331e9d9784e73e342f4fc3c4d9b04429c0cc26f9e87",
      "blockNumber": "0xa6e4659",
      "gasUsed": "0x6d0e",
      "effectiveGasPrice": "0x5f5e100",
      "from": "0xa623046b3cb9619bace903a8c6d7a1c0a6723c53",
      "to": "0x000000000022d473030f116ddee9f6b43ac78ba3",
      "contractAddress": null,
      "gasUsedForL1": "0x0",
      "l1BlockNumber": "0x863087",
      "timeboosted": false
    },
    {
      "status": "0x1",
      "cumulativeGasUsed": "0xed057",
      "logs": [
        {
          "address": "0xfb3e0c6f74eb1a21cc1da29aec80d2dfe6c9a317",
          "topics": [
            "0xdd466e674ea557f56295e2d0218a125ea4b4f0f6f3307b95f85e6110838d6438",
            "0x502b468f2dec78635605bb4e058b2a91c03e73331656ab745bde7b51c81a1f20",
            "0x00000000000000000000000075faf114eafb1bdbe2f0316df893fd58ce46aa4d",
            "0x00000000000000000000000082b9e52b26a2954e113f94ff26647754d5a4247d"
          ],
          "data": "0x00000000000000000000000000000000000000000000000000000000000001f4000000000000000000000000000000000000000000000000000000000000000a0000000000000000000000000000000000000000000000000000000000000000000000000000000000000000000000000000001f9f6e4990f2273685cb6ba3d00000000000000000000000000000000000000000000000000000000000010dd9",
          "blockHash": "0x2cd820b035699d786967d1d32b11c6baeefbd828b2ae950ce59b5c1398b86388",
          "blockNumber": "0xa6e465d",
          "transactionHash": "0x5a30645451a70001f9ea376ddf88e75ff66ce60caae761e1d4d99e27889417e9",
          "transactionIndex": "0x5",
          "logIndex": "0x10",
          "removed": false
        },
        {
          "address": "0xac631556d3d4019c95769033b5e719dd77124bac",
          "topics": [
            "0xddf252ad1be2c89b69c2b068fc378daa952ba7f163c4a11628f55a4df523b3ef",
            "0x0000000000000000000000000000000000000000000000000000000000000000",
            "0x000000000000000000000000a623046b3cb9619bace903a8c6d7a1c0a6723c53",
            "0x0000000000000000000000000000000000000000000000000000000000000035"
          ],
          "data": "0x",
          "blockHash": "0x2cd820b035699d786967d1d32b11c6baeefbd828b2ae950ce59b5c1398b86388",
          "blockNumber": "0xa6e465d",
          "transactionHash": "0x5a30645451a70001f9ea376ddf88e75ff66ce60caae761e1d4d99e27889417e9",
          "transactionIndex": "0x5",
          "logIndex": "0x11",
          "removed": false
        },
        {
          "address": "0xfb3e0c6f74eb1a21cc1da29aec80d2dfe6c9a317",
          "topics": [
            "0xf208f4912782fd25c7f114ca3723a2d5dd6f3bcc3ac8db5af63baa85f711d5ec",
            "0x502b468f2dec78635605bb4e058b2a91c03e73331656ab745bde7b51c81a1f20",
            "0x000000000000000000000000ac631556d3d4019c95769033b5e719dd77124bac"
          ],
          "data": "0x000000000000000000000000000000000000000000000000000000000000f08c0000000000000000000000000000000000000000000000000000000000012b24000000000000000000000000000000000000000000000000000000000606eeed0000000000000000000000000000000000000000000000000000000000000035",
          "blockHash": "0x2cd820b035699d786967d1d32b11c6baeefbd828b2ae950ce59b5c1398b86388",
          "blockNumber": "0xa6e465d",
          "transactionHash": "0x5a30645451a70001f9ea376ddf88e75ff66ce60caae761e1d4d99e27889417e9",
          "transactionIndex": "0x5",
          "logIndex": "0x12",
          "removed": false
        },
        {
          "address": "0x75faf114eafb1bdbe2f0316df893fd58ce46aa4d",
          "topics": [
            "0xddf252ad1be2c89b69c2b068fc378daa952ba7f163c4a11628f55a4df523b3ef",
            "0x000000000000000000000000a623046b3cb9619bace903a8c6d7a1c0a6723c53",
            "0x000000000000000000000000fb3e0c6f74eb1a21cc1da29aec80d2dfe6c9a317"
          ],
          "data": "0x00000000000000000000000000000000000000000000000000000000000f4163",
          "blockHash": "0x2cd820b035699d786967d1d32b11c6baeefbd828b2ae950ce59b5c1398b86388",
          "blockNumber": "0xa6e465d",
          "transactionHash": "0x5a30645451a70001f9ea376ddf88e75ff66ce60caae761e1d4d99e27889417e9",
          "transactionIndex": "0x5",
          "logIndex": "0x13",
          "removed": false
        },
        {
          "address": "0x82b9e52b26a2954e113f94ff26647754d5a4247d",
          "topics": [
            "0xddf252ad1be2c89b69c2b068fc378daa952ba7f163c4a11628f55a4df523b3ef",
            "0x000000000000000000000000a623046b3cb9619bace903a8c6d7a1c0a6723c53",
            "0x000000000000000000000000fb3e0c6f74eb1a21cc1da29aec80d2dfe6c9a317"
          ],
          "data": "0x000000000000000000000000000000000000000000000000000000003b9ac9f8",
          "blockHash": "0x2cd820b035699d786967d1d32b11c6baeefbd828b2ae950ce59b5c1398b86388",
          "blockNumber": "0xa6e465d",
          "transactionHash": "0x5a30645451a70001f9ea376ddf88e75ff66ce60caae761e1d4d99e27889417e9",
          "transactionIndex": "0x5",
          "logIndex": "0x14",
          "removed": false
        }
      ],
      "logsBloom": "0x0000004000000000000090100000000800000000002010000000000000002000000000000000000210800000000000000000800000000000000000000000005080000000002000000000000c000000000000000000000000000000000000000000000040020400000000000000000800020000000000002000000010000000000000000001000008000000200000000000000001000000000000020000200000000004200000000000000000000000000000000000000400000000000000000000000002000000000000010000000000000000000000000000000000000020000020000000000100400000000000000004000000000000001100000000000004",
      "type": "0x2",
      "transactionHash": "0x5a30645451a70001f9ea376ddf88e75ff66ce60caae761e1d4d99e27889417e9",
      "transactionIndex": "0x5",
      "blockHash": "0x2cd820b035699d786967d1d32b11c6baeefbd828b2ae950ce59b5c1398b86388",
      "blockNumber": "0xa6e465d",
      "gasUsed": "0x6e607",
      "effectiveGasPrice": "0x5f5e100",
      "from": "0xa623046b3cb9619bace903a8c6d7a1c0a6723c53",
      "to": "0xac631556d3d4019c95769033b5e719dd77124bac",
      "contractAddress": null,
      "gasUsedForL1": "0x0",
      "l1BlockNumber": "0x863087",
      "timeboosted": false
    }
  ],
  "libraries": [],
  "pending": [],
  "returns": {},
  "timestamp": 1752887511,
  "chain": 421614,
  "commit": "0e209e2"
}