{
  "transactions": [
    {
      "hash": "0x1e3f287c50a1ecf468c182458cd63d69182ff5acd5df6f25d165b3b82422a0ff",
      "transactionType": "CALL",
      "contractName": null,
      "contractAddress": "0xc83fe969e7152420ffe02f4da2bc1c5ad09d73ac",
      "function": "approve(address,uint256)",
      "arguments": [
        "0x00000000000044a361Ae3cAc094c9D1b14Eece97",
        "115792089237316195423570985008687907853269984665640564039457584007913129639935"
      ],
      "transaction": {
        "from": "0xa623046b3cb9619bace903a8c6d7a1c0a6723c53",
        "to": "0xc83fe969e7152420ffe02f4da2bc1c5ad09d73ac",
        "gas": "0xfe9e",
        "value": "0x0",
        "input": "0x095ea7b300000000000000000000000000000000000044a361ae3cac094c9d1b14eece97ffffffffffffffffffffffffffffffffffffffffffffffffffffffffffffffff",
        "nonce": "0x47",
        "chainId": "0xaa36a7"
      },
      "additionalContracts": [],
      "isFixedGasLimit": false
    },
    {
      "hash": "0x2dd607baaf0319bdb1651fc705bd3db4a3bc9d49fe37b2c3581651508e688c45",
      "transactionType": "CALL",
      "contractName": null,
      "contractAddress": "0xe06c630e2e7bcd63f34dbf71198633c388e85fa3",
      "function": "approve(address,uint256)",
      "arguments": [
        "0x00000000000044a361Ae3cAc094c9D1b14Eece97",
        "115792089237316195423570985008687907853269984665640564039457584007913129639935"
      ],
      "transaction": {
        "from": "0xa623046b3cb9619bace903a8c6d7a1c0a6723c53",
        "to": "0xe06c630e2e7bcd63f34dbf71198633c388e85fa3",
        "gas": "0xfe9e",
        "value": "0x0",
        "input": "0x095ea7b300000000000000000000000000000000000044a361ae3cac094c9d1b14eece97ffffffffffffffffffffffffffffffffffffffffffffffffffffffffffffffff",
        "nonce": "0x48",
        "chainId": "0xaa36a7"
      },
      "additionalContracts": [],
      "isFixedGasLimit": false
    },
    {
      "hash": "0x936489307cb1ee19ec89d60fbbdf974b5f5d950b959a8b5c77dfbf5594a61b65",
      "transactionType": "CALL",
      "contractName": null,
      "contractAddress": "0x00000000000044a361ae3cac094c9d1b14eece97",
      "function": "swapExactTokensForTokens(uint256,uint256,bool,(address,address,uint24,int24,address),bytes,address,uint256)",
      "arguments": [
        "100",
        "0",
        "true",
        "(0xc83fe969e7152420FFe02f4dA2bc1c5ad09d73ac, 0xE06c630E2e7bCD63f34Dbf71198633C388E85FA3, 500, 10, 0x0000000000000000000000000000000000000000)",
        "0x",
        "0x0d2Dc4E9ebc1465E86Fdf6ab18377CB82eCf7548",
        "1752893580"
      ],
      "transaction": {
        "from": "0xa623046b3cb9619bace903a8c6d7a1c0a6723c53",
        "to": "0x00000000000044a361ae3cac094c9d1b14eece97",
        "gas": "0x34065",
        "value": "0x0",
        "input": "0xb1a0d571000000000000000000000000000000000000000000000000000000000000006400000000000000000000000000000000000000000000000000000000000000000000000000000000000000000000000000000000000000000000000000000001000000000000000000000000c83fe969e7152420ffe02f4da2bc1c5ad09d73ac000000000000000000000000e06c630e2e7bcd63f34dbf71198633c388e85fa300000000000000000000000000000000000000000000000000000000000001f4000000000000000000000000000000000000000000000000000000000000000a000000000000000000000000000000000000000000000000000000000000000000000000000000000000000000000000000000000000000000000000000001600000000000000000000000000d2dc4e9ebc1465e86fdf6ab18377cb82ecf754800000000000000000000000000000000000000000000000000000000687b088c0000000000000000000000000000000000000000000000000000000000000000",
        "nonce": "0x49",
        "chainId": "0xaa36a7"
      },
      "additionalContracts": [],
      "isFixedGasLimit": false
    }
  ],
  "receipts": [
    {
      "status": "0x1",
      "cumulativeGasUsed": "0xdc8677",
      "logs": [
        {
          "address": "0xc83fe969e7152420ffe02f4da2bc1c5ad09d73ac",
          "topics": [
            "0x8c5be1e5ebec7d5bd14f71427d1e84f3dd0314c0f7b2291e5b200ac8c7c3b925",
            "0x000000000000000000000000a623046b3cb9619bace903a8c6d7a1c0a6723c53",
            "0x00000000000000000000000000000000000044a361ae3cac094c9d1b14eece97"
          ],
          "data": "0xffffffffffffffffffffffffffffffffffffffffffffffffffffffffffffffff",
          "blockHash": "0x369e11ea2cdd6fe26430c98bd050dfbe4408ca698acd5d98e80865a957bb2d70",
          "blockNumber": "0x86314c",
          "transactionHash": "0x1e3f287c50a1ecf468c182458cd63d69182ff5acd5df6f25d165b3b82422a0ff",
          "transactionIndex": "0x90",
          "logIndex": "0xf7",
          "removed": false
        }
      ],
      "logsBloom": "0x00000000000000000000000000000000000000000000000000000000040000000000000000000000008000000000000000000000000000000000000040200010000000000020000000000000800000000000000000000000000000000000000000000040000000000000000000000000000000000000000000000000000040000000000000000000000000000000000000000000000000000000000000000000020000000000000000000000000000000000000000000000000000000000000000000000000000000000000000000000000000000000000000000000000000010010000000000000000000000000000000000000000000000000000000000000",
      "type": "0x2",
      "transactionHash": "0x1e3f287c50a1ecf468c182458cd63d69182ff5acd5df6f25d165b3b82422a0ff",
      "transactionIndex": "0x90",
      "blockHash": "0x369e11ea2cdd6fe26430c98bd050dfbe4408ca698acd5d98e80865a957bb2d70",
      "blockNumber": "0x86314c",
      "gasUsed": "0xb857",
      "effectiveGasPrice": "0xfe95d",
      "from": "0xa623046b3cb9619bace903a8c6d7a1c0a6723c53",
      "to": "0xc83fe969e7152420ffe02f4da2bc1c5ad09d73ac",
      "contractAddress": null
    },
    {
      "status": "0x1",
      "cumulativeGasUsed": "0x111c500",
      "logs": [
        {
          "address": "0xe06c630e2e7bcd63f34dbf71198633c388e85fa3",
          "topics": [
            "0x8c5be1e5ebec7d5bd14f71427d1e84f3dd0314c0f7b2291e5b200ac8c7c3b925",
            "0x000000000000000000000000a623046b3cb9619bace903a8c6d7a1c0a6723c53",
            "0x00000000000000000000000000000000000044a361ae3cac094c9d1b14eece97"
          ],
          "data": "0xffffffffffffffffffffffffffffffffffffffffffffffffffffffffffffffff",
          "blockHash": "0xb4f23cf0571dae2c6285179f13ee11bb932141d15f28532a46fcf8ac784c3ee8",
          "blockNumber": "0x86314d",
          "transactionHash": "0x2dd607baaf0319bdb1651fc705bd3db4a3bc9d49fe37b2c3581651508e688c45",
          "transactionIndex": "0x9d",
          "logIndex": "0xd6",
          "removed": false
        }
      ],
      "logsBloom": "0x00000000000000000000000000000000000000000000000000000000000000000000000000000000008000000000000000000000000000000000000840200010000000000020000000000000100000000000000000000000000000000000000000000040000000000000000000000000000000000000000000000000000040000000000000000000000000000000000000000000000000000000000000000000020000000000000000000000000000000000000000000000000000000000000000000000000000000000000000000000000000000000000000000000000000010010000000000000000000000000000000000000000000000000000000000000",
      "type": "0x2",
      "transactionHash": "0x2dd607baaf0319bdb1651fc705bd3db4a3bc9d49fe37b2c3581651508e688c45",
      "transactionIndex": "0x9d",
      "blockHash": "0xb4f23cf0571dae2c6285179f13ee11bb932141d15f28532a46fcf8ac784c3ee8",
      "blockNumber": "0x86314d",
      "gasUsed": "0xb857",
      "effectiveGasPrice": "0xfe95d",
      "from": "0xa623046b3cb9619bace903a8c6d7a1c0a6723c53",
      "to": "0xe06c630e2e7bcd63f34dbf71198633c388e85fa3",
      "contractAddress": null
    },
    {
      "status": "0x1",
      "cumulativeGasUsed": "0xc1f67d",
      "logs": [
        {
          "address": "0xe03a1074c86cfedd5c142c4f04f1a1536e203543",
          "topics": [
            "0x40e9cecb9f5f1f1c5b9c97dec2917b7ee92e57ba5563708daca94dd84ad7112f",
            "0xeea236b084f6d8ea463d2592986393bf7d2ed012c6a6d5f935b095c68a27941b",
            "0x00000000000000000000000000000000000044a361ae3cac094c9d1b14eece97"
          ],
          "data": "0xffffffffffffffffffffffffffffffffffffffffffffffffffffffffffffff9c00000000000000000000000000000000000000000000000000000000000003dd000000000000000000000000000000000000000329849bbd6acf76538a1b614900000000000000000000000000000000000000000000000000000000009a311700000000000000000000000000000000000000000000000000000000000059f200000000000000000000000000000000000000000000000000000000000001f4",
          "blockHash": "0x5512a77a90b39294fd33287e02fbfb67683b3cf072c3c8785b170d2f4f25256a",
          "blockNumber": "0x86314e",
          "transactionHash": "0x936489307cb1ee19ec89d60fbbdf974b5f5d950b959a8b5c77dfbf5594a61b65",
          "transactionIndex": "0xab",
          "logIndex": "0x113",
          "removed": false
        },
        {
          "address": "0xc83fe969e7152420ffe02f4da2bc1c5ad09d73ac",
          "topics": [
            "0xddf252ad1be2c89b69c2b068fc378daa952ba7f163c4a11628f55a4df523b3ef",
            "0x000000000000000000000000a623046b3cb9619bace903a8c6d7a1c0a6723c53",
            "0x000000000000000000000000e03a1074c86cfedd5c142c4f04f1a1536e203543"
          ],
          "data": "0x0000000000000000000000000000000000000000000000000000000000000064",
          "blockHash": "0x5512a77a90b39294fd33287e02fbfb67683b3cf072c3c8785b170d2f4f25256a",
          "blockNumber": "0x86314e",
          "transactionHash": "0x936489307cb1ee19ec89d60fbbdf974b5f5d950b959a8b5c77dfbf5594a61b65",
          "transactionIndex": "0xab",
          "logIndex": "0x114",
          "removed": false
        },
        {
          "address": "0xe06c630e2e7bcd63f34dbf71198633c388e85fa3",
          "topics": [
            "0xddf252ad1be2c89b69c2b068fc378daa952ba7f163c4a11628f55a4df523b3ef",
            "0x000000000000000000000000e03a1074c86cfedd5c142c4f04f1a1536e203543",
            "0x0000000000000000000000000d2dc4e9ebc1465e86fdf6ab18377cb82ecf7548"
          ],
          "data": "0x00000000000000000000000000000000000000000000000000000000000003dd",
          "blockHash": "0x5512a77a90b39294fd33287e02fbfb67683b3cf072c3c8785b170d2f4f25256a",
          "blockNumber": "0x86314e",
          "transactionHash": "0x936489307cb1ee19ec89d60fbbdf974b5f5d950b959a8b5c77dfbf5594a61b65",
          "transactionIndex": "0xab",
          "logIndex": "0x115",
          "removed": false
        }
      ],
      "logsBloom": "0x00000000000000000000000000000080000000000000000000000000840000000000000000000000008000000000000000000100040000000000000840000010000000000020000000000008900000000000000000000020000000000000000000000040000000000000000080000000000400000000100000000010000040000000000000000000000010000000000000000000000000000000000000000000000000000000000000000020000000000000000000000000000000000000000000000002000000000000000000000000000000000000000000001000800000011000000000000020004000000000000000000000000000000000000000000000",
      "type": "0x2",
      "transactionHash": "0x936489307cb1ee19ec89d60fbbdf974b5f5d950b959a8b5c77dfbf5594a61b65",
      "transactionIndex": "0xab",
      "blockHash": "0x5512a77a90b39294fd33287e02fbfb67683b3cf072c3c8785b170d2f4f25256a",
      "blockNumber": "0x86314e",
      "gasUsed": "0x23929",
      "effectiveGasPrice": "0xfe95d",
      "from": "0xa623046b3cb9619bace903a8c6d7a1c0a6723c53",
      "to": "0x00000000000044a361ae3cac094c9d1b14eece97",
      "contractAddress": null
    }
  ],
  "libraries": [],
  "pending": [],
  "returns": {},
  "timestamp": 1752890029,
  "chain": 11155111,
  "commit": "0e209e2"
}